{
  "contractName": "CryptoTrader",
  "abi": [
    {
      "anonymous": false,
      "inputs": [
        {
          "indexed": false,
          "internalType": "address",
          "name": "winner",
          "type": "address"
        },
        {
          "indexed": false,
          "internalType": "address[]",
          "name": "traders",
          "type": "address[]"
        },
        {
          "indexed": false,
          "internalType": "uint256[]",
          "name": "balances",
          "type": "uint256[]"
        }
      ],
      "name": "CloseCompetition",
      "type": "event"
    },
    {
      "anonymous": false,
      "inputs": [
        {
          "indexed": true,
          "internalType": "address",
          "name": "previousOwner",
          "type": "address"
        },
        {
          "indexed": true,
          "internalType": "address",
          "name": "newOwner",
          "type": "address"
        }
      ],
      "name": "OwnershipTransferred",
      "type": "event"
    },
    {
      "inputs": [],
      "name": "competitionDuration",
      "outputs": [
        {
          "internalType": "uint256",
          "name": "",
          "type": "uint256"
        }
      ],
      "stateMutability": "view",
      "type": "function",
      "constant": true
    },
    {
      "inputs": [
        {
          "internalType": "uint256",
          "name": "",
          "type": "uint256"
        },
        {
          "internalType": "address",
          "name": "",
          "type": "address"
        },
        {
          "internalType": "string",
          "name": "",
          "type": "string"
        }
      ],
      "name": "competitionToTraderToCurrencyToBalance",
      "outputs": [
        {
          "internalType": "uint256",
          "name": "",
          "type": "uint256"
        }
      ],
      "stateMutability": "view",
      "type": "function",
      "constant": true
    },
    {
      "inputs": [
        {
          "internalType": "uint256",
          "name": "",
          "type": "uint256"
        },
        {
          "internalType": "uint256",
          "name": "",
          "type": "uint256"
        }
      ],
      "name": "competitionToTraders",
      "outputs": [
        {
          "internalType": "address",
          "name": "",
          "type": "address"
        }
      ],
      "stateMutability": "view",
      "type": "function",
      "constant": true
    },
    {
      "inputs": [],
      "name": "currentCompetition",
      "outputs": [
        {
          "internalType": "uint256",
          "name": "",
          "type": "uint256"
        }
      ],
      "stateMutability": "view",
      "type": "function",
      "constant": true
    },
    {
      "inputs": [],
      "name": "getPrice",
      "outputs": [
        {
          "internalType": "uint256",
          "name": "",
          "type": "uint256"
        }
      ],
      "stateMutability": "view",
      "type": "function",
      "constant": true
    },
    {
      "inputs": [],
      "name": "isOwner",
      "outputs": [
        {
          "internalType": "bool",
          "name": "",
          "type": "bool"
        }
      ],
      "stateMutability": "view",
      "type": "function",
      "constant": true
    },
    {
      "inputs": [],
      "name": "owner",
      "outputs": [
        {
          "internalType": "address",
          "name": "",
          "type": "address"
        }
      ],
      "stateMutability": "view",
      "type": "function",
      "constant": true
    },
    {
      "inputs": [],
      "name": "participationFee",
      "outputs": [
        {
          "internalType": "uint256",
          "name": "",
          "type": "uint256"
        }
      ],
      "stateMutability": "view",
      "type": "function",
      "constant": true
    },
    {
      "inputs": [],
      "name": "realCurrency",
      "outputs": [
        {
          "internalType": "string",
          "name": "",
          "type": "string"
        }
      ],
      "stateMutability": "view",
      "type": "function",
      "constant": true
    },
    {
      "inputs": [],
      "name": "renounceOwnership",
      "outputs": [],
      "stateMutability": "nonpayable",
      "type": "function"
    },
    {
      "inputs": [],
      "name": "startTimestamp",
      "outputs": [
        {
          "internalType": "uint256",
          "name": "",
          "type": "uint256"
        }
      ],
      "stateMutability": "view",
      "type": "function",
      "constant": true
    },
    {
      "inputs": [
        {
          "internalType": "address",
          "name": "newOwner",
          "type": "address"
        }
      ],
      "name": "transferOwnership",
      "outputs": [],
      "stateMutability": "nonpayable",
      "type": "function"
    },
    {
      "inputs": [],
      "name": "virtualCurrency",
      "outputs": [
        {
          "internalType": "string",
          "name": "",
          "type": "string"
        }
      ],
      "stateMutability": "view",
      "type": "function",
      "constant": true
    },
    {
      "inputs": [
        {
          "internalType": "uint256",
          "name": "_competitionId",
          "type": "uint256"
        }
      ],
      "name": "joinCompetition",
      "outputs": [],
      "stateMutability": "payable",
      "type": "function",
      "payable": true
    },
    {
      "inputs": [
        {
          "internalType": "uint256",
          "name": "_competitionId",
          "type": "uint256"
        }
      ],
      "name": "leaveCompetition",
      "outputs": [],
      "stateMutability": "nonpayable",
      "type": "function"
    },
    {
      "inputs": [
        {
          "internalType": "bool",
          "name": "_buy",
          "type": "bool"
        },
        {
          "internalType": "uint256",
          "name": "_weiAmount",
          "type": "uint256"
        }
      ],
      "name": "trade",
      "outputs": [],
      "stateMutability": "nonpayable",
      "type": "function"
    },
    {
      "inputs": [],
      "name": "isCompetitionClosable",
      "outputs": [
        {
          "internalType": "bool",
          "name": "",
          "type": "bool"
        }
      ],
      "stateMutability": "view",
      "type": "function",
      "constant": true
    },
    {
      "inputs": [],
      "name": "closeCompetition",
      "outputs": [],
      "stateMutability": "nonpayable",
      "type": "function"
    },
    {
      "inputs": [],
      "name": "forceCloseCompetition",
      "outputs": [],
      "stateMutability": "nonpayable",
      "type": "function"
    },
    {
      "inputs": [
        {
          "internalType": "uint256",
          "name": "_competitionId",
          "type": "uint256"
        }
      ],
      "name": "getTraders",
      "outputs": [
        {
          "internalType": "address[]",
          "name": "",
          "type": "address[]"
        }
      ],
      "stateMutability": "view",
      "type": "function",
      "constant": true
    },
    {
      "inputs": [
        {
          "internalType": "uint256",
          "name": "_competitionId",
          "type": "uint256"
        },
        {
          "internalType": "address",
          "name": "_trader",
          "type": "address"
        }
      ],
      "name": "getBalances",
      "outputs": [
        {
          "internalType": "uint256[]",
          "name": "",
          "type": "uint256[]"
        }
      ],
      "stateMutability": "view",
      "type": "function",
      "constant": true
    }
  ],
  "bytecode": "0x6080604052739fffe440258b79c5d6604001674a4722ffc0f7bc600160006101000a81548173ffffffffffffffffffffffffffffffffffffffff021916908373ffffffffffffffffffffffffffffffffffffffff1602179055507381fe72b5a8d1a857d176c3e7d5bd2679a9b85763600260006101000a81548173ffffffffffffffffffffffffffffffffffffffff021916908373ffffffffffffffffffffffffffffffffffffffff160217905550600160009054906101000a900473ffffffffffffffffffffffffffffffffffffffff16600360006101000a81548173ffffffffffffffffffffffffffffffffffffffff021916908373ffffffffffffffffffffffffffffffffffffffff1602179055506040518060400160405280600a81526020017f547261646572436f696e00000000000000000000000000000000000000000000815250600690805190602001906200015e92919062000286565b506040518060400160405280600881526020017f457468657265756d00000000000000000000000000000000000000000000000081525060079080519060200190620001ac92919062000286565b5060016008554260095562093a80600a5566038d7ea4c68000600b556000620001da6200027e60201b60201c565b9050806000806101000a81548173ffffffffffffffffffffffffffffffffffffffff021916908373ffffffffffffffffffffffffffffffffffffffff1602179055508073ffffffffffffffffffffffffffffffffffffffff16600073ffffffffffffffffffffffffffffffffffffffff167f8be0079c531659141344cd1fd0a4f28419497f9722a3daafe3b4186f6b6457e060405160405180910390a35062000335565b600033905090565b828054600181600116156101000203166002900490600052602060002090601f016020900481019282601f10620002c957805160ff1916838001178555620002fa565b82800160010185558215620002fa579182015b82811115620002f9578251825591602001919060010190620002dc565b5b5090506200030991906200030d565b5090565b6200033291905b808211156200032e57600081600090555060010162000314565b5090565b90565b6125ba80620003456000396000f3fe60806040526004361061012a5760003560e01c80638da5cb5b116100ab5780639bb5ce301161006f5780639bb5ce30146105ca578063af96d18a146105f5578063bab9e5a714610630578063da72c935146106e0578063e6fd48bc14610770578063f2fde38b1461079b5761012a565b80638da5cb5b1461044d5780638f32d59b146104a457806392b0cd99146104d35780639635d1641461051a57806398d5fdca1461059f5761012a565b80634d39397a116100f25780634d39397a146102d057806351bbfe0114610360578063715018a6146103775780638524b8561461038e57806388b295031461041e5761012a565b806302cea7321461012f5780630b34ec22146102355780631095846f1461026057806322fa365e1461028e5780632716a509146102a5575b600080fd5b34801561013b57600080fd5b5061021f6004803603606081101561015257600080fd5b8101908080359060200190929190803573ffffffffffffffffffffffffffffffffffffffff1690602001909291908035906020019064010000000081111561019957600080fd5b8201836020820111156101ab57600080fd5b803590602001918460018302840111640100000000831117156101cd57600080fd5b91908080601f016020809104026020016040519081016040528093929190818152602001838380828437600081840152601f19601f8201169050808301925050505050505091929192905050506107ec565b6040518082815260200191505060405180910390f35b34801561024157600080fd5b5061024a610834565b6040518082815260200191505060405180910390f35b61028c6004803603602081101561027657600080fd5b810190808035906020019092919050505061083a565b005b34801561029a57600080fd5b506102a36109cb565b005b3480156102b157600080fd5b506102ba610b2f565b6040518082815260200191505060405180910390f35b3480156102dc57600080fd5b50610309600480360360208110156102f357600080fd5b8101908080359060200190929190505050610b35565b6040518080602001828103825283818151815260200191508051906020019060200280838360005b8381101561034c578082015181840152602081019050610331565b505050509050019250505060405180910390f35b34801561036c57600080fd5b50610375610bd6565b005b34801561038357600080fd5b5061038c610c5a565b005b34801561039a57600080fd5b506103a3610d93565b6040518080602001828103825283818151815260200191508051906020019080838360005b838110156103e35780820151818401526020810190506103c8565b50505050905090810190601f1680156104105780820380516001836020036101000a031916815260200191505b509250505060405180910390f35b34801561042a57600080fd5b50610433610e31565b604051808215151515815260200191505060405180910390f35b34801561045957600080fd5b50610462610f12565b604051808273ffffffffffffffffffffffffffffffffffffffff1673ffffffffffffffffffffffffffffffffffffffff16815260200191505060405180910390f35b3480156104b057600080fd5b506104b9610f3b565b604051808215151515815260200191505060405180910390f35b3480156104df57600080fd5b50610518600480360360408110156104f657600080fd5b8101908080351515906020019092919080359060200190929190505050610f99565b005b34801561052657600080fd5b5061055d6004803603604081101561053d57600080fd5b8101908080359060200190929190803590602001909291905050506115d6565b604051808273ffffffffffffffffffffffffffffffffffffffff1673ffffffffffffffffffffffffffffffffffffffff16815260200191505060405180910390f35b3480156105ab57600080fd5b506105b4611621565b6040518082815260200191505060405180910390f35b3480156105d657600080fd5b506105df6116ce565b6040518082815260200191505060405180910390f35b34801561060157600080fd5b5061062e6004803603602081101561061857600080fd5b81019080803590602001909291905050506116d4565b005b34801561063c57600080fd5b506106896004803603604081101561065357600080fd5b8101908080359060200190929190803573ffffffffffffffffffffffffffffffffffffffff1690602001909291905050506118be565b6040518080602001828103825283818151815260200191508051906020019060200280838360005b838110156106cc5780820151818401526020810190506106b1565b505050509050019250505060405180910390f35b3480156106ec57600080fd5b506106f5611ab2565b6040518080602001828103825283818151815260200191508051906020019080838360005b8381101561073557808201518184015260208101905061071a565b50505050905090810190601f1680156107625780820380516001836020036101000a031916815260200191505b509250505060405180910390f35b34801561077c57600080fd5b50610785611b50565b6040518082815260200191505060405180910390f35b3480156107a757600080fd5b506107ea600480360360208110156107be57600080fd5b81019080803573ffffffffffffffffffffffffffffffffffffffff169060200190929190505050611b56565b005b60046020528260005260406000206020528160005260406000208180516020810182018051848252602083016020850120818352809550505050505060009250925050505481565b60085481565b806008548111610895576040517f08c379a00000000000000000000000000000000000000000000000000000000081526004018080602001828103825260258152602001806124956025913960400191505060405180910390fd5b33826108a18282611bdc565b156108f7576040517f08c379a00000000000000000000000000000000000000000000000000000000081526004018080602001828103825260248152602001806124e86024913960400191505060405180910390fd5b34600b5414610951576040517f08c379a000000000000000000000000000000000000000000000000000000000815260040180806020018281038252602a81526020018061255b602a913960400191505060405180910390fd5b60056000858152602001908152602001600020339080600181540180825580915050600190039060005260206000200160009091909190916101000a81548173ffffffffffffffffffffffffffffffffffffffff021916908373ffffffffffffffffffffffffffffffffffffffff16021790555050505050565b600a5460095401421015610a47576040517f08c379a000000000000000000000000000000000000000000000000000000000815260040180806020018281038252601b8152602001807f436f6d7065746974696f6e206973206e6f7420636c6f7361626c65000000000081525060200191505060405180910390fd5b60085460085414610aa3576040517f08c379a000000000000000000000000000000000000000000000000000000000815260040180806020018281038252602381526020018061250c6023913960400191505060405180910390fd5b33600854610ab18282611bdc565b610b23576040517f08c379a00000000000000000000000000000000000000000000000000000000081526004018080602001828103825260208152602001807f547261646572206973206e6f7420696e2074686520636f6d7065746974696f6e81525060200191505060405180910390fd5b610b2b611cf7565b5050565b600a5481565b606060056000838152602001908152602001600020805480602002602001604051908101604052809291908181526020018280548015610bca57602002820191906000526020600020905b8160009054906101000a900473ffffffffffffffffffffffffffffffffffffffff1673ffffffffffffffffffffffffffffffffffffffff1681526020019060010190808311610b80575b50505050509050919050565b610bde610f3b565b610c50576040517f08c379a00000000000000000000000000000000000000000000000000000000081526004018080602001828103825260208152602001807f4f776e61626c653a2063616c6c6572206973206e6f7420746865206f776e657281525060200191505060405180910390fd5b610c58611cf7565b565b610c62610f3b565b610cd4576040517f08c379a00000000000000000000000000000000000000000000000000000000081526004018080602001828103825260208152602001807f4f776e61626c653a2063616c6c6572206973206e6f7420746865206f776e657281525060200191505060405180910390fd5b600073ffffffffffffffffffffffffffffffffffffffff166000809054906101000a900473ffffffffffffffffffffffffffffffffffffffff1673ffffffffffffffffffffffffffffffffffffffff167f8be0079c531659141344cd1fd0a4f28419497f9722a3daafe3b4186f6b6457e060405160405180910390a360008060006101000a81548173ffffffffffffffffffffffffffffffffffffffff021916908373ffffffffffffffffffffffffffffffffffffffff160217905550565b60078054600181600116156101000203166002900480601f016020809104026020016040519081016040528092919081815260200182805460018160011615610100020316600290048015610e295780601f10610dfe57610100808354040283529160200191610e29565b820191906000526020600020905b815481529060010190602001808311610e0c57829003601f168201915b505050505081565b6000600a5460095401421015610eaf576040517f08c379a000000000000000000000000000000000000000000000000000000000815260040180806020018281038252601b8152602001807f436f6d7065746974696f6e206973206e6f7420636c6f7361626c65000000000081525060200191505060405180910390fd5b60085460085414610f0b576040517f08c379a000000000000000000000000000000000000000000000000000000000815260040180806020018281038252602381526020018061250c6023913960400191505060405180910390fd5b6001905090565b60008060009054906101000a900473ffffffffffffffffffffffffffffffffffffffff16905090565b60008060009054906101000a900473ffffffffffffffffffffffffffffffffffffffff1673ffffffffffffffffffffffffffffffffffffffff16610f7d611e2a565b73ffffffffffffffffffffffffffffffffffffffff1614905090565b33600854610fa78282611bdc565b611019576040517f08c379a00000000000000000000000000000000000000000000000000000000081526004018080602001828103825260208152602001807f547261646572206973206e6f7420696e2074686520636f6d7065746974696f6e81525060200191505060405180910390fd5b83338482151560011515141561115757600061103482611e32565b90508060046000600854815260200190815260200160002060008573ffffffffffffffffffffffffffffffffffffffff1673ffffffffffffffffffffffffffffffffffffffff168152602001908152602001600020600660405180828054600181600116156101000203166002900480156110e65780601f106110c45761010080835404028352918201916110e6565b820191906000526020600020905b8154815290600101906020018083116110d2575b50509150509081526020016040518091039020541015611151576040517f08c379a000000000000000000000000000000000000000000000000000000000815260040180806020018281038252602e8152602001806124ba602e913960400191505060405180910390fd5b50611273565b8060046000600854815260200190815260200160002060008473ffffffffffffffffffffffffffffffffffffffff1673ffffffffffffffffffffffffffffffffffffffff168152602001908152602001600020600760405180828054600181600116156101000203166002900480156112075780601f106111e5576101008083540402835291820191611207565b820191906000526020600020905b8154815290600101906020018083116111f3575b50509150509081526020016040518091039020541015611272576040517f08c379a000000000000000000000000000000000000000000000000000000000815260040180806020018281038252602c81526020018061252f602c913960400191505060405180910390fd5b5b600061127e87611e32565b9050871561142b578060046000600854815260200190815260200160002060003373ffffffffffffffffffffffffffffffffffffffff1673ffffffffffffffffffffffffffffffffffffffff168152602001908152602001600020600660405180828054600181600116156101000203166002900480156113365780601f10611314576101008083540402835291820191611336565b820191906000526020600020905b815481529060010190602001808311611322575b50509150509081526020016040518091039020600082825403925050819055508660046000600854815260200190815260200160002060003373ffffffffffffffffffffffffffffffffffffffff1673ffffffffffffffffffffffffffffffffffffffff168152602001908152602001600020600760405180828054600181600116156101000203166002900480156114065780601f106113e4576101008083540402835291820191611406565b820191906000526020600020905b8154815290600101906020018083116113f2575b50509150509081526020016040518091039020600082825401925050819055506115cc565b8060046000600854815260200190815260200160002060003373ffffffffffffffffffffffffffffffffffffffff1673ffffffffffffffffffffffffffffffffffffffff168152602001908152602001600020600660405180828054600181600116156101000203166002900480156114db5780601f106114b95761010080835404028352918201916114db565b820191906000526020600020905b8154815290600101906020018083116114c7575b50509150509081526020016040518091039020600082825401925050819055508660046000600854815260200190815260200160002060003373ffffffffffffffffffffffffffffffffffffffff1673ffffffffffffffffffffffffffffffffffffffff168152602001908152602001600020600760405180828054600181600116156101000203166002900480156115ab5780601f106115895761010080835404028352918201916115ab565b820191906000526020600020905b815481529060010190602001808311611597575b50509150509081526020016040518091039020600082825403925050819055505b5050505050505050565b600560205281600052604060002081815481106115ef57fe5b906000526020600020016000915091509054906101000a900473ffffffffffffffffffffffffffffffffffffffff1681565b6000600360009054906101000a900473ffffffffffffffffffffffffffffffffffffffff1673ffffffffffffffffffffffffffffffffffffffff166357de26a46040518163ffffffff1660e01b815260040160206040518083038186803b15801561168b57600080fd5b505afa15801561169f573d6000803e3d6000fd5b505050506040513d60208110156116b557600080fd5b810190808051906020019092919050505060001c905090565b600b5481565b80600854811161172f576040517f08c379a00000000000000000000000000000000000000000000000000000000081526004018080602001828103825260258152602001806124956025913960400191505060405180910390fd5b338261173b8282611bdc565b6117ad576040517f08c379a00000000000000000000000000000000000000000000000000000000081526004018080602001828103825260208152602001807f547261646572206973206e6f7420696e2074686520636f6d7065746974696f6e81525060200191505060405180910390fd5b60006118506005600087815260200190815260200160002080548060200260200160405190810160405280929190818152602001828054801561184557602002820191906000526020600020905b8160009054906101000a900473ffffffffffffffffffffffffffffffffffffffff1673ffffffffffffffffffffffffffffffffffffffff16815260200190600101908083116117fb575b505050505033611e66565b905061186e6005600087815260200190815260200160002082611edc565b3373ffffffffffffffffffffffffffffffffffffffff166108fc600b549081150290604051600060405180830381858888f193505050501580156118b6573d6000803e3d6000fd5b505050505050565b60608060026040519080825280602002602001820160405280156118f15781602001602082028038833980820191505090505b5090506004600085815260200190815260200160002060008473ffffffffffffffffffffffffffffffffffffffff1673ffffffffffffffffffffffffffffffffffffffff168152602001908152602001600020600660405180828054600181600116156101000203166002900480156119a15780601f1061197f5761010080835404028352918201916119a1565b820191906000526020600020905b81548152906001019060200180831161198d575b5050915050908152602001604051809103902054816000815181106119c257fe5b6020026020010181815250506004600085815260200190815260200160002060008473ffffffffffffffffffffffffffffffffffffffff1673ffffffffffffffffffffffffffffffffffffffff16815260200190815260200160002060076040518082805460018160011615610100020316600290048015611a7b5780601f10611a59576101008083540402835291820191611a7b565b820191906000526020600020905b815481529060010190602001808311611a67575b505091505090815260200160405180910390205481600181518110611a9c57fe5b6020026020010181815250508091505092915050565b60068054600181600116156101000203166002900480601f016020809104026020016040519081016040528092919081815260200182805460018160011615610100020316600290048015611b485780601f10611b1d57610100808354040283529160200191611b48565b820191906000526020600020905b815481529060010190602001808311611b2b57829003601f168201915b505050505081565b60095481565b611b5e610f3b565b611bd0576040517f08c379a00000000000000000000000000000000000000000000000000000000081526004018080602001828103825260208152602001807f4f776e61626c653a2063616c6c6572206973206e6f7420746865206f776e657281525060200191505060405180910390fd5b611bd981611fe2565b50565b6000606060056000848152602001908152602001600020805480602002602001604051908101604052809291908181526020018280548015611c7357602002820191906000526020600020905b8160009054906101000a900473ffffffffffffffffffffffffffffffffffffffff1673ffffffffffffffffffffffffffffffffffffffff1681526020019060010190808311611c29575b50505050509050600080905060008090505b8251811015611ceb578573ffffffffffffffffffffffffffffffffffffffff16838281518110611cb157fe5b602002602001015173ffffffffffffffffffffffffffffffffffffffff161415611cde5760019150611ceb565b8080600101915050611c85565b50809250505092915050565b6060600560006008548152602001908152602001600020805480602002602001604051908101604052809291908181526020018280548015611d8e57602002820191906000526020600020905b8160009054906101000a900473ffffffffffffffffffffffffffffffffffffffff1673ffffffffffffffffffffffffffffffffffffffff1681526020019060010190808311611d44575b5050505050905060608151604051908082528060200260200182016040528015611dc75781602001602082028038833980820191505090505b50905060008090505b8251811015611e1d57611df8600854848381518110611deb57fe5b6020026020010151612126565b828281518110611e0457fe5b6020026020010181815250508080600101915050611dd0565b50611e266122bb565b5050565b600033905090565b6000662386f26fc1000082670de0b6b3a7640000611e4e611621565b81611e5557fe5b040281611e5e57fe5b049050919050565b600080600090505b8351811015611ed457838181518110611e8357fe5b602002602001015173ffffffffffffffffffffffffffffffffffffffff168373ffffffffffffffffffffffffffffffffffffffff161415611ec75780915050611ed6565b8080600101915050611e6e565b505b92915050565b81805490508110611eec57611fde565b60008190505b6001838054905003811015611f9c57826001820181548110611f1057fe5b9060005260206000200160009054906101000a900473ffffffffffffffffffffffffffffffffffffffff16838281548110611f4757fe5b9060005260206000200160006101000a81548173ffffffffffffffffffffffffffffffffffffffff021916908373ffffffffffffffffffffffffffffffffffffffff1602179055508080600101915050611ef2565b5081600183805490500381548110611fb057fe5b9060005260206000200160006101000a81549073ffffffffffffffffffffffffffffffffffffffff02191690555b5050565b600073ffffffffffffffffffffffffffffffffffffffff168173ffffffffffffffffffffffffffffffffffffffff161415612068576040517f08c379a000000000000000000000000000000000000000000000000000000000815260040180806020018281038252602681526020018061246f6026913960400191505060405180910390fd5b8073ffffffffffffffffffffffffffffffffffffffff166000809054906101000a900473ffffffffffffffffffffffffffffffffffffffff1673ffffffffffffffffffffffffffffffffffffffff167f8be0079c531659141344cd1fd0a4f28419497f9722a3daafe3b4186f6b6457e060405160405180910390a3806000806101000a81548173ffffffffffffffffffffffffffffffffffffffff021916908373ffffffffffffffffffffffffffffffffffffffff16021790555050565b60006121f16004600085815260200190815260200160002060008473ffffffffffffffffffffffffffffffffffffffff1673ffffffffffffffffffffffffffffffffffffffff168152602001908152602001600020600760405180828054600181600116156101000203166002900480156121d85780601f106121b65761010080835404028352918201916121d8565b820191906000526020600020905b8154815290600101906020018083116121c4575b5050915050908152602001604051809103902054611e32565b6004600085815260200190815260200160002060008473ffffffffffffffffffffffffffffffffffffffff1673ffffffffffffffffffffffffffffffffffffffff1681526020019081526020016000206006604051808280546001816001161561010002031660029004801561229e5780601f1061227c57610100808354040283529182019161229e565b820191906000526020600020905b81548152906001019060200180831161228a575b505091505090815260200160405180910390205401905092915050565b42600981905550600860008154809291906001019190505550606060056000600854815260200190815260200160002080548060200260200160405190810160405280929190818152602001828054801561236b57602002820191906000526020600020905b8160009054906101000a900473ffffffffffffffffffffffffffffffffffffffff1673ffffffffffffffffffffffffffffffffffffffff1681526020019060010190808311612321575b5050505050905060008090505b815181101561246a576103e860046000600854815260200190815260200160002060008484815181106123a757fe5b602002602001015173ffffffffffffffffffffffffffffffffffffffff1673ffffffffffffffffffffffffffffffffffffffff168152602001908152602001600020600660405180828054600181600116156101000203166002900480156124465780601f10612424576101008083540402835291820191612446565b820191906000526020600020905b815481529060010190602001808311612432575b50509150509081526020016040518091039020819055508080600101915050612378565b505056fe4f776e61626c653a206e6577206f776e657220697320746865207a65726f206164647265737354686520636f6d7065746974696f6e206973206f766572206f722069732072756e6e696e674e6f742073756666696369656e74207669727475616c2063757272656e63792062616c616e636520746f2062757954726164657220697320616c726561647920696e2074686520636f6d7065746974696f6e54686973206973206e6f74207468652063757272656e7420636f6d7065746974696f6e4e6f742073756666696369656e74207265616c2063757272656e63792062616c616e636520746f2073656c6c506c656173652073656e64207468652072657175697265642070617274696369706174696f6e20666565a2646970667358221220ac511fd65fa5b3316421f688eee3ee4e3e0cc5cae542c20b7d801ad7b325b6fa64736f6c63430006010033",
  "source": "pragma solidity >=0.4.21 <0.7.0;\n\nimport \"./CryptoTraderInternal.sol\";\n\n/// @title Contract to challenge your trader friends with virtual coin. Real ether is needed to join competition.\n/// @author Quentin Brunet, Pierre Piron, Lo Legron, Prescilla Lecurieux\n/// @notice Student project, may contain bugs and security issues.\ncontract CryptoTrader is CryptoTraderInternal {\n    /// @notice Allow trader to join a competition with a small participation fee.\n    function joinCompetition(\n        uint _competitionId\n    ) external payable isFutureCompetition(_competitionId) isNotParticipant(msg.sender, _competitionId) {\n        require(participationFee == msg.value, \"Please send the required participation fee\");\n        competitionToTraders[_competitionId].push(msg.sender);\n    }\n\n    /// @notice Allow trader to leave a competition (refund the participation fee).\n    function leaveCompetition(\n        uint _competitionId\n    ) external isFutureCompetition(_competitionId) isParticipant(msg.sender, _competitionId) {\n        uint index = _findIndexOf(competitionToTraders[_competitionId], msg.sender);\n        _removeAtIndex(competitionToTraders[_competitionId], index);\n        msg.sender.transfer(participationFee);\n    }\n\n    /// @notice Allow trader to make a trader (buy or sell).\n    /// @param _buy (true => buy / false => sell)\n    /// @param _weiAmount (real currency amount to buy/sell in Wei)\n    function trade(\n        bool _buy,\n        uint _weiAmount\n    ) external isParticipant(msg.sender, currentCompetition) hasSufficientBalance(_buy, msg.sender, _weiAmount) {\n        uint virtualCurrencyAmount = _getVirtualCurrencyAmount(_weiAmount);\n\n        if (_buy) {\n            competitionToTraderToCurrencyToBalance[currentCompetition][msg.sender][virtualCurrency] -= virtualCurrencyAmount;\n            competitionToTraderToCurrencyToBalance[currentCompetition][msg.sender][realCurrency] += _weiAmount;\n        } else {\n            competitionToTraderToCurrencyToBalance[currentCompetition][msg.sender][virtualCurrency] += virtualCurrencyAmount;\n            competitionToTraderToCurrencyToBalance[currentCompetition][msg.sender][realCurrency] -= _weiAmount;\n        }\n    }\n\n    /// @notice Check if competition can be closed.\n    /// @return bool\n    function isCompetitionClosable() external view isClosable returns (bool) {\n        return true;\n    }\n\n    /// @notice Allow trader to close current competition. Start the next competition straight after.\n    function closeCompetition() external isClosable isParticipant(msg.sender, currentCompetition) {\n        _closeCompetition();\n    }\n\n    /// @notice Allow owner to close current competition. Start the next competition straight after.\n    function forceCloseCompetition() external onlyOwner {\n        _closeCompetition();\n    }\n\n    /// @notice Get trader for given competition.\n    /// @return address[]\n    function getTraders(uint _competitionId) external view returns (address[] memory) {\n        return competitionToTraders[_competitionId];\n    }\n\n    /// @notice Get balances of a trader for a given competition.\n    /// @return uint[] (0 = virtualCurrency / 1 = realCurrency)\n    function getBalances(uint _competitionId, address _trader) external view returns (uint[] memory) {\n        uint[] memory balances = new uint[](2);\n\n        balances[0] = competitionToTraderToCurrencyToBalance[_competitionId][_trader][virtualCurrency];\n        balances[1] = competitionToTraderToCurrencyToBalance[_competitionId][_trader][realCurrency];\n\n        return balances;\n    }\n}\n",
  "sourcePath": "/Users/quentin/Documents/work/school/5AMOC/Blockchain/5MOC-blockchain/contracts/CryptoTrader.sol",
  "compiler": {
    "name": "solc",
    "version": "0.6.1+commit.e6f7d5a4.Emscripten.clang"
  },
  "schemaVersion": "3.0.23",
  "updatedAt": "2020-03-13T16:22:05.223Z",
  "networkType": "ethereum",
  "devdoc": {
    "author": "Quentin Brunet, Pierre Piron, Lo Legron, Prescilla Lecurieux",
    "methods": {
      "isOwner()": {
        "details": "Returns true if the caller is the current owner."
      },
      "owner()": {
        "details": "Returns the address of the current owner."
      },
      "renounceOwnership()": {
        "details": "Leaves the contract without owner. It will not be possible to call `onlyOwner` functions anymore. Can only be called by the current owner.     * NOTE: Renouncing ownership will leave the contract without an owner, thereby removing any functionality that is only available to the owner."
      },
      "trade(bool,uint256)": {
        "params": {
          "_buy": "(true => buy / false => sell)",
          "_weiAmount": "(real currency amount to buy/sell in Wei)"
        }
      },
      "transferOwnership(address)": {
        "details": "Transfers ownership of the contract to a new account (`newOwner`). Can only be called by the current owner."
      }
    },
    "title": "Contract to challenge your trader friends with virtual coin. Real ether is needed to join competition."
  },
  "userdoc": {
    "methods": {
      "closeCompetition()": {
        "notice": "Allow trader to close current competition. Start the next competition straight after."
      },
      "forceCloseCompetition()": {
        "notice": "Allow owner to close current competition. Start the next competition straight after."
      },
      "getBalances(uint256,address)": {
        "notice": "Get balances of a trader for a given competition."
      },
      "getPrice()": {
        "notice": "Allow anyone to get real currency current price in Wei."
      },
      "getTraders(uint256)": {
        "notice": "Get trader for given competition."
      },
      "isCompetitionClosable()": {
        "notice": "Check if competition can be closed."
      },
      "joinCompetition(uint256)": {
        "notice": "Allow trader to join a competition with a small participation fee."
      },
      "leaveCompetition(uint256)": {
        "notice": "Allow trader to leave a competition (refund the participation fee)."
      },
      "trade(bool,uint256)": {
        "notice": "Allow trader to make a trader (buy or sell)."
      }
    },
    "notice": "Student project, may contain bugs and security issues."
  }
}