{
  "contractName": "CryptoTrader",
  "abi": [
    {
      "anonymous": false,
      "inputs": [
        {
          "indexed": false,
          "internalType": "address",
          "name": "winner",
          "type": "address"
        },
        {
          "indexed": false,
          "internalType": "address[]",
          "name": "traders",
          "type": "address[]"
        },
        {
          "indexed": false,
          "internalType": "uint256[]",
          "name": "balances",
          "type": "uint256[]"
        }
      ],
      "name": "CloseCompetition",
      "type": "event"
    },
    {
      "anonymous": false,
      "inputs": [
        {
          "indexed": true,
          "internalType": "address",
          "name": "previousOwner",
          "type": "address"
        },
        {
          "indexed": true,
          "internalType": "address",
          "name": "newOwner",
          "type": "address"
        }
      ],
      "name": "OwnershipTransferred",
      "type": "event"
    },
    {
      "constant": true,
      "inputs": [],
      "name": "getPrice",
      "outputs": [
        {
          "internalType": "uint256",
          "name": "",
          "type": "uint256"
        }
      ],
      "payable": false,
      "stateMutability": "view",
      "type": "function"
    },
    {
      "constant": true,
      "inputs": [],
      "name": "isOwner",
      "outputs": [
        {
          "internalType": "bool",
          "name": "",
          "type": "bool"
        }
      ],
      "payable": false,
      "stateMutability": "view",
      "type": "function"
    },
    {
      "constant": true,
      "inputs": [],
      "name": "owner",
      "outputs": [
        {
          "internalType": "address",
          "name": "",
          "type": "address"
        }
      ],
      "payable": false,
      "stateMutability": "view",
      "type": "function"
    },
    {
      "constant": false,
      "inputs": [],
      "name": "renounceOwnership",
      "outputs": [],
      "payable": false,
      "stateMutability": "nonpayable",
      "type": "function"
    },
    {
      "constant": false,
      "inputs": [
        {
          "internalType": "address",
          "name": "newOwner",
          "type": "address"
        }
      ],
      "name": "transferOwnership",
      "outputs": [],
      "payable": false,
      "stateMutability": "nonpayable",
      "type": "function"
    },
    {
      "constant": false,
      "inputs": [
        {
          "internalType": "uint256",
          "name": "_competitionId",
          "type": "uint256"
        }
      ],
      "name": "joinCompetition",
      "outputs": [],
      "payable": true,
      "stateMutability": "payable",
      "type": "function"
    },
    {
      "constant": false,
      "inputs": [
        {
          "internalType": "uint256",
          "name": "_competitionId",
          "type": "uint256"
        }
      ],
      "name": "leaveCompetition",
      "outputs": [],
      "payable": true,
      "stateMutability": "payable",
      "type": "function"
    },
    {
      "constant": false,
      "inputs": [
        {
          "internalType": "bool",
          "name": "_buy",
          "type": "bool"
        },
        {
          "internalType": "uint256",
          "name": "_amount",
          "type": "uint256"
        }
      ],
      "name": "trade",
      "outputs": [],
      "payable": false,
      "stateMutability": "nonpayable",
      "type": "function"
    },
    {
      "constant": true,
      "inputs": [],
      "name": "isCompetitionClosable",
      "outputs": [
        {
          "internalType": "bool",
          "name": "",
          "type": "bool"
        }
      ],
      "payable": false,
      "stateMutability": "view",
      "type": "function"
    },
    {
      "constant": false,
      "inputs": [],
      "name": "closeCompetition",
      "outputs": [],
      "payable": false,
      "stateMutability": "nonpayable",
      "type": "function"
    }
  ],
  "bytecode": "0x60806040526040518060400160405280600a81526020017f547261646572436f696e00000000000000000000000000000000000000000000815250600390805190602001906200005192919062000179565b506040518060400160405280600881526020017f457468657265756d000000000000000000000000000000000000000000000000815250600490805190602001906200009f92919062000179565b5060016005554260065562093a8060075566038d7ea4c680006008556000620000cd6200017160201b60201c565b9050806000806101000a81548173ffffffffffffffffffffffffffffffffffffffff021916908373ffffffffffffffffffffffffffffffffffffffff1602179055508073ffffffffffffffffffffffffffffffffffffffff16600073ffffffffffffffffffffffffffffffffffffffff167f8be0079c531659141344cd1fd0a4f28419497f9722a3daafe3b4186f6b6457e060405160405180910390a35062000228565b600033905090565b828054600181600116156101000203166002900490600052602060002090601f016020900481019282601f10620001bc57805160ff1916838001178555620001ed565b82800160010185558215620001ed579182015b82811115620001ec578251825591602001919060010190620001cf565b5b509050620001fc919062000200565b5090565b6200022591905b808211156200022157600081600090555060010162000207565b5090565b90565b611c7d80620002386000396000f3fe6080604052600436106100915760003560e01c80638f32d59b116100595780638f32d59b1461017857806392b0cd99146101a757806398d5fdca146101ee578063af96d18a14610219578063f2fde38b1461024757610091565b80631095846f1461009657806322fa365e146100c4578063715018a6146100db57806388b29503146100f25780638da5cb5b14610121575b600080fd5b6100c2600480360360208110156100ac57600080fd5b8101908080359060200190929190505050610298565b005b3480156100d057600080fd5b506100d961042c565b005b3480156100e757600080fd5b506100f06107e7565b005b3480156100fe57600080fd5b50610107610920565b604051808215151515815260200191505060405180910390f35b34801561012d57600080fd5b50610136610a01565b604051808273ffffffffffffffffffffffffffffffffffffffff1673ffffffffffffffffffffffffffffffffffffffff16815260200191505060405180910390f35b34801561018457600080fd5b5061018d610a2a565b604051808215151515815260200191505060405180910390f35b3480156101b357600080fd5b506101ec600480360360408110156101ca57600080fd5b8101908080351515906020019092919080359060200190929190505050610a88565b005b3480156101fa57600080fd5b506102036110a4565b6040518082815260200191505060405180910390f35b6102456004803603602081101561022f57600080fd5b81019080803590602001909291905050506110b3565b005b34801561025357600080fd5b506102966004803603602081101561026a57600080fd5b81019080803573ffffffffffffffffffffffffffffffffffffffff169060200190929190505050611280565b005b8060055481116102f3576040517f08c379a0000000000000000000000000000000000000000000000000000000008152600401808060200182810382526026815260200180611b0c6026913960400191505060405180910390fd5b33826102ff8282611306565b15610355576040517f08c379a0000000000000000000000000000000000000000000000000000000008152600401808060200182810382526025815260200180611bf76025913960400191505060405180910390fd5b34600854146103af576040517f08c379a000000000000000000000000000000000000000000000000000000000815260040180806020018281038252602b815260200180611b58602b913960400191505060405180910390fd5b600260008581526020019081526020016000203390806001815401808255809150509060018203906000526020600020016000909192909190916101000a81548173ffffffffffffffffffffffffffffffffffffffff021916908373ffffffffffffffffffffffffffffffffffffffff1602179055505050505050565b600754600654014210156104a8576040517f08c379a000000000000000000000000000000000000000000000000000000000815260040180806020018281038252601c8152602001807f436f6d7065746974696f6e206973206e6f7420636c6f7361626c652e0000000081525060200191505060405180910390fd5b60055460055414610504576040517f08c379a0000000000000000000000000000000000000000000000000000000008152600401808060200182810382526024815260200180611b836024913960400191505060405180910390fd5b336005546105128282611306565b610567576040517f08c379a0000000000000000000000000000000000000000000000000000000008152600401808060200182810382526021815260200180611ba76021913960400191505060405180910390fd5b60606002600060055481526020019081526020016000208054806020026020016040519081016040528092919081815260200182805480156105fe57602002820191906000526020600020905b8160009054906101000a900473ffffffffffffffffffffffffffffffffffffffff1673ffffffffffffffffffffffffffffffffffffffff16815260200190600101908083116105b4575b50505050509050606081516040519080825280602002602001820160405280156106375781602001602082028038833980820191505090505b50905060008090505b825181101561068d5761066860055484838151811061065b57fe5b6020026020010151611421565b82828151811061067457fe5b6020026020010181815250508080600101915050610640565b50600061069a83836115be565b90508073ffffffffffffffffffffffffffffffffffffffff166108fc479081150290604051600060405180830381858888f193505050501580156106e2573d6000803e3d6000fd5b507fcd1adcc51de7cd9677afe650d5757b4f8dd04c7a47e322a6177f71f14773ef59818484604051808473ffffffffffffffffffffffffffffffffffffffff1673ffffffffffffffffffffffffffffffffffffffff1681526020018060200180602001838103835285818151815260200191508051906020019060200280838360005b83811015610780578082015181840152602081019050610765565b50505050905001838103825284818151815260200191508051906020019060200280838360005b838110156107c25780820151818401526020810190506107a7565b505050509050019550505050505060405180910390a16107e0611654565b5050505050565b6107ef610a2a565b610861576040517f08c379a00000000000000000000000000000000000000000000000000000000081526004018080602001828103825260208152602001807f4f776e61626c653a2063616c6c6572206973206e6f7420746865206f776e657281525060200191505060405180910390fd5b600073ffffffffffffffffffffffffffffffffffffffff166000809054906101000a900473ffffffffffffffffffffffffffffffffffffffff1673ffffffffffffffffffffffffffffffffffffffff167f8be0079c531659141344cd1fd0a4f28419497f9722a3daafe3b4186f6b6457e060405160405180910390a360008060006101000a81548173ffffffffffffffffffffffffffffffffffffffff021916908373ffffffffffffffffffffffffffffffffffffffff160217905550565b60006007546006540142101561099e576040517f08c379a000000000000000000000000000000000000000000000000000000000815260040180806020018281038252601c8152602001807f436f6d7065746974696f6e206973206e6f7420636c6f7361626c652e0000000081525060200191505060405180910390fd5b600554600554146109fa576040517f08c379a0000000000000000000000000000000000000000000000000000000008152600401808060200182810382526024815260200180611b836024913960400191505060405180910390fd5b6001905090565b60008060009054906101000a900473ffffffffffffffffffffffffffffffffffffffff16905090565b60008060009054906101000a900473ffffffffffffffffffffffffffffffffffffffff1673ffffffffffffffffffffffffffffffffffffffff16610a6c611807565b73ffffffffffffffffffffffffffffffffffffffff1614905090565b33600554610a968282611306565b610aeb576040517f08c379a0000000000000000000000000000000000000000000000000000000008152600401808060200182810382526021815260200180611ba76021913960400191505060405180910390fd5b833384821515600115151415610c2457610b036110a4565b810260016000600554815260200190815260200160002060008473ffffffffffffffffffffffffffffffffffffffff1673ffffffffffffffffffffffffffffffffffffffff16815260200190815260200160002060036040518082805460018160011615610100020316600290048015610bb45780601f10610b92576101008083540402835291820191610bb4565b820191906000526020600020905b815481529060010190602001808311610ba0575b50509150509081526020016040518091039020541015610c1f576040517f08c379a000000000000000000000000000000000000000000000000000000000815260040180806020018281038252602f815260200180611bc8602f913960400191505060405180910390fd5b610d40565b8060016000600554815260200190815260200160002060008473ffffffffffffffffffffffffffffffffffffffff1673ffffffffffffffffffffffffffffffffffffffff16815260200190815260200160002060046040518082805460018160011615610100020316600290048015610cd45780601f10610cb2576101008083540402835291820191610cd4565b820191906000526020600020905b815481529060010190602001808311610cc0575b50509150509081526020016040518091039020541015610d3f576040517f08c379a000000000000000000000000000000000000000000000000000000000815260040180806020018281038252602d815260200180611c1c602d913960400191505060405180910390fd5b5b600086610d4b6110a4565b0290508715610ef9578060016000600554815260200190815260200160002060003373ffffffffffffffffffffffffffffffffffffffff1673ffffffffffffffffffffffffffffffffffffffff16815260200190815260200160002060036040518082805460018160011615610100020316600290048015610e045780601f10610de2576101008083540402835291820191610e04565b820191906000526020600020905b815481529060010190602001808311610df0575b50509150509081526020016040518091039020600082825403925050819055508660016000600554815260200190815260200160002060003373ffffffffffffffffffffffffffffffffffffffff1673ffffffffffffffffffffffffffffffffffffffff16815260200190815260200160002060046040518082805460018160011615610100020316600290048015610ed45780601f10610eb2576101008083540402835291820191610ed4565b820191906000526020600020905b815481529060010190602001808311610ec0575b505091505090815260200160405180910390206000828254019250508190555061109a565b8060016000600554815260200190815260200160002060003373ffffffffffffffffffffffffffffffffffffffff1673ffffffffffffffffffffffffffffffffffffffff16815260200190815260200160002060036040518082805460018160011615610100020316600290048015610fa95780601f10610f87576101008083540402835291820191610fa9565b820191906000526020600020905b815481529060010190602001808311610f95575b50509150509081526020016040518091039020600082825401925050819055508660016000600554815260200190815260200160002060003373ffffffffffffffffffffffffffffffffffffffff1673ffffffffffffffffffffffffffffffffffffffff168152602001908152602001600020600460405180828054600181600116156101000203166002900480156110795780601f10611057576101008083540402835291820191611079565b820191906000526020600020905b815481529060010190602001808311611065575b50509150509081526020016040518091039020600082825403925050819055505b5050505050505050565b60006110ae61180f565b905090565b80600554811161110e576040517f08c379a0000000000000000000000000000000000000000000000000000000008152600401808060200182810382526026815260200180611b0c6026913960400191505060405180910390fd5b338261111a8282611306565b61116f576040517f08c379a0000000000000000000000000000000000000000000000000000000008152600401808060200182810382526021815260200180611ba76021913960400191505060405180910390fd5b60006112126002600087815260200190815260200160002080548060200260200160405190810160405280929190818152602001828054801561120757602002820191906000526020600020905b8160009054906101000a900473ffffffffffffffffffffffffffffffffffffffff1673ffffffffffffffffffffffffffffffffffffffff16815260200190600101908083116111bd575b50505050503361184b565b905061123060026000878152602001908152602001600020826118c1565b3373ffffffffffffffffffffffffffffffffffffffff166108fc6008549081150290604051600060405180830381858888f19350505050158015611278573d6000803e3d6000fd5b505050505050565b611288610a2a565b6112fa576040517f08c379a00000000000000000000000000000000000000000000000000000000081526004018080602001828103825260208152602001807f4f776e61626c653a2063616c6c6572206973206e6f7420746865206f776e657281525060200191505060405180910390fd5b611303816119c7565b50565b600060606002600084815260200190815260200160002080548060200260200160405190810160405280929190818152602001828054801561139d57602002820191906000526020600020905b8160009054906101000a900473ffffffffffffffffffffffffffffffffffffffff1673ffffffffffffffffffffffffffffffffffffffff1681526020019060010190808311611353575b50505050509050600080905060008090505b8251811015611415578573ffffffffffffffffffffffffffffffffffffffff168382815181106113db57fe5b602002602001015173ffffffffffffffffffffffffffffffffffffffff1614156114085760019150611415565b80806001019150506113af565b50809250505092915050565b600061142b6110a4565b6001600085815260200190815260200160002060008473ffffffffffffffffffffffffffffffffffffffff1673ffffffffffffffffffffffffffffffffffffffff168152602001908152602001600020600460405180828054600181600116156101000203166002900480156114d85780601f106114b65761010080835404028352918201916114d8565b820191906000526020600020905b8154815290600101906020018083116114c4575b5050915050908152602001604051809103902054816114f357fe5b046001600085815260200190815260200160002060008473ffffffffffffffffffffffffffffffffffffffff1673ffffffffffffffffffffffffffffffffffffffff168152602001908152602001600020600360405180828054600181600116156101000203166002900480156115a15780601f1061157f5761010080835404028352918201916115a1565b820191906000526020600020905b81548152906001019060200180831161158d575b505091505090815260200160405180910390205401905092915050565b600080826000815181106115ce57fe5b6020026020010151905060008090506000600190505b855181101561162f57828582815181106115fa57fe5b602002602001015111156116225784818151811061161457fe5b602002602001015192508091505b80806001019150506115e4565b50600085828151811061163e57fe5b6020026020010151905080935050505092915050565b42600681905550600560008154809291906001019190505550606060026000600554815260200190815260200160002080548060200260200160405190810160405280929190818152602001828054801561170457602002820191906000526020600020905b8160009054906101000a900473ffffffffffffffffffffffffffffffffffffffff1673ffffffffffffffffffffffffffffffffffffffff16815260200190600101908083116116ba575b5050505050905060008090505b8151811015611803576103e8600160006005548152602001908152602001600020600084848151811061174057fe5b602002602001015173ffffffffffffffffffffffffffffffffffffffff1673ffffffffffffffffffffffffffffffffffffffff168152602001908152602001600020600460405180828054600181600116156101000203166002900480156117df5780601f106117bd5761010080835404028352918201916117df565b820191906000526020600020905b8154815290600101906020018083116117cb575b50509150509081526020016040518091039020819055508080600101915050611711565b5050565b600033905090565b60006103e942604051602001808281526020019150506040516020818303038152906040528051906020012060001c8161184557fe5b06905090565b600080600090505b83518110156118b95783818151811061186857fe5b602002602001015173ffffffffffffffffffffffffffffffffffffffff168373ffffffffffffffffffffffffffffffffffffffff1614156118ac57809150506118bb565b8080600101915050611853565b505b92915050565b818054905081106118d1576119c3565b60008190505b6001838054905003811015611981578260018201815481106118f557fe5b9060005260206000200160009054906101000a900473ffffffffffffffffffffffffffffffffffffffff1683828154811061192c57fe5b9060005260206000200160006101000a81548173ffffffffffffffffffffffffffffffffffffffff021916908373ffffffffffffffffffffffffffffffffffffffff16021790555080806001019150506118d7565b508160018380549050038154811061199557fe5b9060005260206000200160006101000a81549073ffffffffffffffffffffffffffffffffffffffff02191690555b5050565b600073ffffffffffffffffffffffffffffffffffffffff168173ffffffffffffffffffffffffffffffffffffffff161415611a4d576040517f08c379a0000000000000000000000000000000000000000000000000000000008152600401808060200182810382526026815260200180611b326026913960400191505060405180910390fd5b8073ffffffffffffffffffffffffffffffffffffffff166000809054906101000a900473ffffffffffffffffffffffffffffffffffffffff1673ffffffffffffffffffffffffffffffffffffffff167f8be0079c531659141344cd1fd0a4f28419497f9722a3daafe3b4186f6b6457e060405160405180910390a3806000806101000a81548173ffffffffffffffffffffffffffffffffffffffff021916908373ffffffffffffffffffffffffffffffffffffffff1602179055505056fe54686520636f6d7065746974696f6e206973206f766572206f722069732072756e6e696e672e4f776e61626c653a206e6577206f776e657220697320746865207a65726f2061646472657373506c656173652073656e64207468652072657175697265642070617274696369706174696f6e206665652e54686973206973206e6f74207468652063757272656e7420636f6d7065746974696f6e2e547261646572206973206e6f7420696e2074686520636f6d7065746974696f6e2e4e6f742073756666696369656e74207669727475616c2063757272656e63792062616c616e636520746f206275792e54726164657220697320616c726561647920696e2074686520636f6d7065746974696f6e2e4e6f742073756666696369656e74207265616c2063757272656e63792062616c616e636520746f2073656c6c2ea265627a7a72315820c2b3c3ee58c03eda3b6dc43efb0547db7f86ab52a81203edc772f7ad8aec2e5064736f6c63430005100032",
  "source": "pragma solidity >=0.4.21 <0.7.0;\n\nimport \"./CryptoTraderInternal.sol\";\n\n/// @title Contract to challenge your trader friends with virtual coin. Real ether is needed to join competition.\n/// @author Quentin Brunet, Pierre Piron, Lo Legron, Prescilla Lecurieux\n/// @notice Student project, may contain bugs and security issues.\ncontract CryptoTrader is CryptoTraderInternal {\n    /// @notice Allow trader to join a competition with a small participation fee.\n    /// @return void\n    function joinCompetition(\n        uint _competitionId\n    ) external payable isFutureCompetition(_competitionId) isNotParticipant(msg.sender, _competitionId) {\n        require(participationFee == msg.value, \"Please send the required participation fee.\");\n        competitionToTraders[_competitionId].push(msg.sender);\n    }\n\n    /// @notice Allow trader to leave a competition (refund the participation fee).\n    /// @return void\n    function leaveCompetition(\n        uint _competitionId\n    ) external payable isFutureCompetition(_competitionId) isParticipant(msg.sender, _competitionId) {\n        uint index = _findIndexOf(competitionToTraders[_competitionId], msg.sender);\n        _removeAtIndex(competitionToTraders[_competitionId], index);\n        msg.sender.transfer(participationFee);\n    }\n\n    /// @notice Allow trader to make a trader (buy or sell).\n    /// @param _buy (true => buy / false => sell)\n    /// @param _amount (real currency amount to buy/sell)\n    /// @return void\n    function trade(\n        bool _buy,\n        uint _amount\n    ) external isParticipant(msg.sender, currentCompetition) hasSufficientBalance(_buy, msg.sender, _amount) {\n        uint virtualCurrencyAmount = getPrice() * _amount;\n\n        if (_buy) {\n            competitionToTraderToCurrencyToBalance[currentCompetition][msg.sender][virtualCurrency] -= virtualCurrencyAmount;\n            competitionToTraderToCurrencyToBalance[currentCompetition][msg.sender][realCurrency] += _amount;\n        } else {\n            competitionToTraderToCurrencyToBalance[currentCompetition][msg.sender][virtualCurrency] += virtualCurrencyAmount;\n            competitionToTraderToCurrencyToBalance[currentCompetition][msg.sender][realCurrency] -= _amount;\n        }\n    }\n\n    /// @notice Check if competition can be closed.\n    /// @return bool\n    function isCompetitionClosable() external view isClosable returns (bool) {\n        return true;\n    }\n\n    /// @notice Allow trader to close current competition. Start the next competition straight after.\n    /// @return void\n    function closeCompetition() external isClosable isParticipant(msg.sender, currentCompetition) {\n        address[] memory traders = competitionToTraders[currentCompetition];\n        uint[] memory balances = new uint[](traders.length);\n\n\n        for (uint i = 0; i < traders.length; i++) {\n            balances[i] = _getTotalBalance(currentCompetition, traders[i]);\n        }\n\n        address payable winner = _getWinner(traders, balances);\n\n        winner.transfer(address(this).balance);\n\n        emit CloseCompetition(winner, traders, balances);\n\n        _restartCompetition();\n    }\n}\n",
  "sourcePath": "/Users/quentin/Documents/work/school/5AMOC/Blockchain/5MOC-blockchain/contracts/CryptoTrader.sol",
  "compiler": {
    "name": "solc",
    "version": "0.5.16+commit.9c3226ce.Emscripten.clang"
  },
  "schemaVersion": "3.0.23",
  "updatedAt": "2020-03-12T23:27:09.684Z",
  "devdoc": {
    "author": "Quentin Brunet, Pierre Piron, Lo Legron, Prescilla Lecurieux",
    "methods": {
      "closeCompetition()": {
        "return": "void"
      },
      "getPrice()": {
        "return": "uint"
      },
      "isCompetitionClosable()": {
        "return": "bool"
      },
      "isOwner()": {
        "details": "Returns true if the caller is the current owner."
      },
      "joinCompetition(uint256)": {
        "return": "void"
      },
      "leaveCompetition(uint256)": {
        "return": "void"
      },
      "owner()": {
        "details": "Returns the address of the current owner."
      },
      "renounceOwnership()": {
        "details": "Leaves the contract without owner. It will not be possible to call `onlyOwner` functions anymore. Can only be called by the current owner.     * NOTE: Renouncing ownership will leave the contract without an owner, thereby removing any functionality that is only available to the owner."
      },
      "trade(bool,uint256)": {
        "params": {
          "_amount": "(real currency amount to buy/sell)",
          "_buy": "(true => buy / false => sell)"
        },
        "return": "void"
      },
      "transferOwnership(address)": {
        "details": "Transfers ownership of the contract to a new account (`newOwner`). Can only be called by the current owner."
      }
    },
    "title": "Contract to challenge your trader friends with virtual coin. Real ether is needed to join competition."
  },
  "userdoc": {
    "methods": {
      "closeCompetition()": {
        "notice": "Allow trader to close current competition. Start the next competition straight after."
      },
      "getPrice()": {
        "notice": "Allow anyone to get current real currency price."
      },
      "isCompetitionClosable()": {
        "notice": "Check if competition can be closed."
      },
      "joinCompetition(uint256)": {
        "notice": "Allow trader to join a competition with a small participation fee."
      },
      "leaveCompetition(uint256)": {
        "notice": "Allow trader to leave a competition (refund the participation fee)."
      },
      "trade(bool,uint256)": {
        "notice": "Allow trader to make a trader (buy or sell)."
      }
    },
    "notice": "Student project, may contain bugs and security issues."
  }
}