{
  "contractName": "CryptoTraderHelper",
  "abi": [
    {
      "anonymous": false,
      "inputs": [
        {
          "indexed": true,
          "internalType": "address",
          "name": "previousOwner",
          "type": "address"
        },
        {
          "indexed": true,
          "internalType": "address",
          "name": "newOwner",
          "type": "address"
        }
      ],
      "name": "OwnershipTransferred",
      "type": "event"
    },
    {
      "constant": true,
      "inputs": [],
      "name": "isOwner",
      "outputs": [
        {
          "internalType": "bool",
          "name": "",
          "type": "bool"
        }
      ],
      "payable": false,
      "stateMutability": "view",
      "type": "function"
    },
    {
      "constant": true,
      "inputs": [],
      "name": "owner",
      "outputs": [
        {
          "internalType": "address",
          "name": "",
          "type": "address"
        }
      ],
      "payable": false,
      "stateMutability": "view",
      "type": "function"
    },
    {
      "constant": false,
      "inputs": [],
      "name": "renounceOwnership",
      "outputs": [],
      "payable": false,
      "stateMutability": "nonpayable",
      "type": "function"
    },
    {
      "constant": false,
      "inputs": [
        {
          "internalType": "address",
          "name": "newOwner",
          "type": "address"
        }
      ],
      "name": "transferOwnership",
      "outputs": [],
      "payable": false,
      "stateMutability": "nonpayable",
      "type": "function"
    },
    {
      "constant": false,
      "inputs": [
        {
          "internalType": "uint256",
          "name": "_competitionDuration",
          "type": "uint256"
        }
      ],
      "name": "setCompetitionDuration",
      "outputs": [],
      "payable": false,
      "stateMutability": "nonpayable",
      "type": "function"
    },
    {
      "constant": true,
      "inputs": [],
      "name": "getPrice",
      "outputs": [
        {
          "internalType": "uint256",
          "name": "",
          "type": "uint256"
        }
      ],
      "payable": false,
      "stateMutability": "view",
      "type": "function"
    }
  ],
  "bytecode": "0x60806040526040518060400160405280600a81526020017f547261646572436f696e000000000000000000000000000000000000000000008152506003908051906020019061004f929190610167565b506040518060400160405280600881526020017f457468657265756d0000000000000000000000000000000000000000000000008152506004908051906020019061009b929190610167565b5060016005554260065562093a8060075560006100bc61015f60201b60201c565b9050806000806101000a81548173ffffffffffffffffffffffffffffffffffffffff021916908373ffffffffffffffffffffffffffffffffffffffff1602179055508073ffffffffffffffffffffffffffffffffffffffff16600073ffffffffffffffffffffffffffffffffffffffff167f8be0079c531659141344cd1fd0a4f28419497f9722a3daafe3b4186f6b6457e060405160405180910390a35061020c565b600033905090565b828054600181600116156101000203166002900490600052602060002090601f016020900481019282601f106101a857805160ff19168380011785556101d6565b828001600101855582156101d6579182015b828111156101d55782518255916020019190600101906101ba565b5b5090506101e391906101e7565b5090565b61020991905b808211156102055760008160009055506001016101ed565b5090565b90565b6105e78061021b6000396000f3fe608060405234801561001057600080fd5b50600436106100625760003560e01c8063715018a6146100675780638da5cb5b146100715780638f32d59b146100bb57806398d5fdca146100dd5780639e005e35146100fb578063f2fde38b14610129575b600080fd5b61006f61016d565b005b6100796102a6565b604051808273ffffffffffffffffffffffffffffffffffffffff1673ffffffffffffffffffffffffffffffffffffffff16815260200191505060405180910390f35b6100c36102cf565b604051808215151515815260200191505060405180910390f35b6100e561032d565b6040518082815260200191505060405180910390f35b6101276004803603602081101561011157600080fd5b8101908080359060200190929190505050610336565b005b61016b6004803603602081101561013f57600080fd5b81019080803573ffffffffffffffffffffffffffffffffffffffff1690602001909291905050506103ba565b005b6101756102cf565b6101e7576040517f08c379a00000000000000000000000000000000000000000000000000000000081526004018080602001828103825260208152602001807f4f776e61626c653a2063616c6c6572206973206e6f7420746865206f776e657281525060200191505060405180910390fd5b600073ffffffffffffffffffffffffffffffffffffffff166000809054906101000a900473ffffffffffffffffffffffffffffffffffffffff1673ffffffffffffffffffffffffffffffffffffffff167f8be0079c531659141344cd1fd0a4f28419497f9722a3daafe3b4186f6b6457e060405160405180910390a360008060006101000a81548173ffffffffffffffffffffffffffffffffffffffff021916908373ffffffffffffffffffffffffffffffffffffffff160217905550565b60008060009054906101000a900473ffffffffffffffffffffffffffffffffffffffff16905090565b60008060009054906101000a900473ffffffffffffffffffffffffffffffffffffffff1673ffffffffffffffffffffffffffffffffffffffff16610311610440565b73ffffffffffffffffffffffffffffffffffffffff1614905090565b600060c8905090565b61033e6102cf565b6103b0576040517f08c379a00000000000000000000000000000000000000000000000000000000081526004018080602001828103825260208152602001807f4f776e61626c653a2063616c6c6572206973206e6f7420746865206f776e657281525060200191505060405180910390fd5b8060078190555050565b6103c26102cf565b610434576040517f08c379a00000000000000000000000000000000000000000000000000000000081526004018080602001828103825260208152602001807f4f776e61626c653a2063616c6c6572206973206e6f7420746865206f776e657281525060200191505060405180910390fd5b61043d81610448565b50565b600033905090565b600073ffffffffffffffffffffffffffffffffffffffff168173ffffffffffffffffffffffffffffffffffffffff1614156104ce576040517f08c379a000000000000000000000000000000000000000000000000000000000815260040180806020018281038252602681526020018061058d6026913960400191505060405180910390fd5b8073ffffffffffffffffffffffffffffffffffffffff166000809054906101000a900473ffffffffffffffffffffffffffffffffffffffff1673ffffffffffffffffffffffffffffffffffffffff167f8be0079c531659141344cd1fd0a4f28419497f9722a3daafe3b4186f6b6457e060405160405180910390a3806000806101000a81548173ffffffffffffffffffffffffffffffffffffffff021916908373ffffffffffffffffffffffffffffffffffffffff1602179055505056fe4f776e61626c653a206e6577206f776e657220697320746865207a65726f2061646472657373a265627a7a72315820720bee9ece18a9396bc3440bbdfae0d0049d245fa7dfaf4399ad40341aa3584764736f6c63430005100032",
  "source": "pragma solidity >=0.4.21 <0.7.0;\n\nimport \"./Ownable.sol\";\n\ncontract CryptoTraderHelper is Ownable {\n    mapping (address => mapping (string => uint)) traderToCurrencyToBalance;\n    mapping (address => uint[]) traderToCompetitions;\n\n    string virtualCurrency = \"TraderCoin\";\n    string realCurrency = \"Ethereum\";\n    uint currentCompetition = 1;\n    uint startTimestamp = now;\n    uint competitionDuration = 7 days;\n\n    modifier isOpen(uint _competitionId) {\n        require(now < startTimestamp + competitionDuration, \"Competition is closed.\");\n        require(_competitionId == currentCompetition, \"Not the current competition.\");\n        _;\n    }\n\n    modifier isFutureCompetition(uint _competitionId) {\n        require(_competitionId > currentCompetition, \"The competition is over or is running.\");\n        _;\n    }\n\n    modifier isParticipant(address _trader, uint _competitionId) {\n        require(_participate(_trader, _competitionId), \"Trader is not in the competition.\");\n        _;\n    }\n\n    modifier isNotParticipant(address _trader, uint _competitionId) {\n        require(!_participate(_trader, _competitionId), \"Trader is already in the competition.\");\n        _;\n    }\n\n    modifier hasSufficientBalance(bool _buy, address _trader, uint _amount) {\n        if (true == _buy) {\n            require(traderToCurrencyToBalance[_trader][virtualCurrency] >= _amount * getPrice(), \"Not sufficient virtual currency balance to buy.\");\n        } else {\n            require(traderToCurrencyToBalance[_trader][realCurrency] >= _amount, \"Not sufficient real currency balance to sell.\");\n        }\n        _;\n    }\n\n    // Return true if the trader (param1) is in the competition (param2)\n    function _participate(address _trader, uint _competitionId) private view returns (bool) {\n        uint[] memory competitions = traderToCompetitions[_trader];\n        bool participant = false;\n\n        for (uint i = 0; i < competitions.length; i++) {\n            if (competitions[i] == _competitionId) {\n                participant = true;\n                break;\n            }\n        }\n\n        return participant;\n    }\n\n    function setCompetitionDuration(uint _competitionDuration) external onlyOwner {\n        competitionDuration = _competitionDuration;\n    }\n\n    function getPrice() public view returns (uint) {\n        // Implement price feeder method\n        return 200;\n    }\n\n    // manque la logique pour switcher de compétition\n    // pour reset les compteurs\n    // pour désigner un gagnant\n}\n",
  "sourcePath": "/Users/quentin/Documents/work/school/5AMOC/Blockchain/5MOC-blockchain/contracts/CryptoTraderHelper.sol",
  "compiler": {
    "name": "solc",
    "version": "0.5.16+commit.9c3226ce.Emscripten.clang"
  },
  "schemaVersion": "3.0.23",
  "updatedAt": "2020-03-12T15:04:11.263Z",
  "devdoc": {
    "methods": {
      "isOwner()": {
        "details": "Returns true if the caller is the current owner."
      },
      "owner()": {
        "details": "Returns the address of the current owner."
      },
      "renounceOwnership()": {
        "details": "Leaves the contract without owner. It will not be possible to call `onlyOwner` functions anymore. Can only be called by the current owner.     * NOTE: Renouncing ownership will leave the contract without an owner, thereby removing any functionality that is only available to the owner."
      },
      "transferOwnership(address)": {
        "details": "Transfers ownership of the contract to a new account (`newOwner`). Can only be called by the current owner."
      }
    }
  },
  "userdoc": {
    "methods": {}
  }
}