{
  "contractName": "CryptoTrader",
  "abi": [
    {
      "anonymous": false,
      "inputs": [
        {
          "indexed": false,
          "internalType": "address",
          "name": "winner",
          "type": "address"
        },
        {
          "indexed": false,
          "internalType": "address[]",
          "name": "traders",
          "type": "address[]"
        },
        {
          "indexed": false,
          "internalType": "uint256[]",
          "name": "balances",
          "type": "uint256[]"
        }
      ],
      "name": "CloseCompetition",
      "type": "event"
    },
    {
      "anonymous": false,
      "inputs": [
        {
          "indexed": true,
          "internalType": "address",
          "name": "previousOwner",
          "type": "address"
        },
        {
          "indexed": true,
          "internalType": "address",
          "name": "newOwner",
          "type": "address"
        }
      ],
      "name": "OwnershipTransferred",
      "type": "event"
    },
    {
      "inputs": [],
      "name": "competitionDuration",
      "outputs": [
        {
          "internalType": "uint256",
          "name": "",
          "type": "uint256"
        }
      ],
      "stateMutability": "view",
      "type": "function"
    },
    {
      "inputs": [
        {
          "internalType": "uint256",
          "name": "",
          "type": "uint256"
        },
        {
          "internalType": "address",
          "name": "",
          "type": "address"
        },
        {
          "internalType": "string",
          "name": "",
          "type": "string"
        }
      ],
      "name": "competitionToTraderToCurrencyToBalance",
      "outputs": [
        {
          "internalType": "uint256",
          "name": "",
          "type": "uint256"
        }
      ],
      "stateMutability": "view",
      "type": "function"
    },
    {
      "inputs": [
        {
          "internalType": "uint256",
          "name": "",
          "type": "uint256"
        },
        {
          "internalType": "uint256",
          "name": "",
          "type": "uint256"
        }
      ],
      "name": "competitionToTraders",
      "outputs": [
        {
          "internalType": "address",
          "name": "",
          "type": "address"
        }
      ],
      "stateMutability": "view",
      "type": "function"
    },
    {
      "inputs": [],
      "name": "currentCompetition",
      "outputs": [
        {
          "internalType": "uint256",
          "name": "",
          "type": "uint256"
        }
      ],
      "stateMutability": "view",
      "type": "function"
    },
    {
      "inputs": [],
      "name": "getPrice",
      "outputs": [
        {
          "internalType": "uint256",
          "name": "",
          "type": "uint256"
        }
      ],
      "stateMutability": "view",
      "type": "function"
    },
    {
      "inputs": [],
      "name": "isOwner",
      "outputs": [
        {
          "internalType": "bool",
          "name": "",
          "type": "bool"
        }
      ],
      "stateMutability": "view",
      "type": "function"
    },
    {
      "inputs": [],
      "name": "owner",
      "outputs": [
        {
          "internalType": "address",
          "name": "",
          "type": "address"
        }
      ],
      "stateMutability": "view",
      "type": "function"
    },
    {
      "inputs": [],
      "name": "participationFee",
      "outputs": [
        {
          "internalType": "uint256",
          "name": "",
          "type": "uint256"
        }
      ],
      "stateMutability": "view",
      "type": "function"
    },
    {
      "inputs": [],
      "name": "realCurrency",
      "outputs": [
        {
          "internalType": "string",
          "name": "",
          "type": "string"
        }
      ],
      "stateMutability": "view",
      "type": "function"
    },
    {
      "inputs": [],
      "name": "renounceOwnership",
      "outputs": [],
      "stateMutability": "nonpayable",
      "type": "function"
    },
    {
      "inputs": [],
      "name": "startTimestamp",
      "outputs": [
        {
          "internalType": "uint256",
          "name": "",
          "type": "uint256"
        }
      ],
      "stateMutability": "view",
      "type": "function"
    },
    {
      "inputs": [
        {
          "internalType": "address",
          "name": "newOwner",
          "type": "address"
        }
      ],
      "name": "transferOwnership",
      "outputs": [],
      "stateMutability": "nonpayable",
      "type": "function"
    },
    {
      "inputs": [],
      "name": "virtualCurrency",
      "outputs": [
        {
          "internalType": "string",
          "name": "",
          "type": "string"
        }
      ],
      "stateMutability": "view",
      "type": "function"
    },
    {
      "inputs": [
        {
          "internalType": "uint256",
          "name": "_competitionId",
          "type": "uint256"
        }
      ],
      "name": "joinCompetition",
      "outputs": [],
      "stateMutability": "payable",
      "type": "function"
    },
    {
      "inputs": [
        {
          "internalType": "uint256",
          "name": "_competitionId",
          "type": "uint256"
        }
      ],
      "name": "leaveCompetition",
      "outputs": [],
      "stateMutability": "nonpayable",
      "type": "function"
    },
    {
      "inputs": [
        {
          "internalType": "bool",
          "name": "_buy",
          "type": "bool"
        },
        {
          "internalType": "uint256",
          "name": "_weiAmount",
          "type": "uint256"
        }
      ],
      "name": "trade",
      "outputs": [],
      "stateMutability": "nonpayable",
      "type": "function"
    },
    {
      "inputs": [],
      "name": "isCompetitionClosable",
      "outputs": [
        {
          "internalType": "bool",
          "name": "",
          "type": "bool"
        }
      ],
      "stateMutability": "view",
      "type": "function"
    },
    {
      "inputs": [],
      "name": "closeCompetition",
      "outputs": [],
      "stateMutability": "nonpayable",
      "type": "function"
    }
  ],
  "bytecode": "0x6080604052739fffe440258b79c5d6604001674a4722ffc0f7bc600160006101000a81548173ffffffffffffffffffffffffffffffffffffffff021916908373ffffffffffffffffffffffffffffffffffffffff1602179055507381fe72b5a8d1a857d176c3e7d5bd2679a9b85763600260006101000a81548173ffffffffffffffffffffffffffffffffffffffff021916908373ffffffffffffffffffffffffffffffffffffffff160217905550600160009054906101000a900473ffffffffffffffffffffffffffffffffffffffff16600360006101000a81548173ffffffffffffffffffffffffffffffffffffffff021916908373ffffffffffffffffffffffffffffffffffffffff1602179055506040518060400160405280600a81526020017f547261646572436f696e00000000000000000000000000000000000000000000815250600690805190602001906200015e92919062000286565b506040518060400160405280600881526020017f457468657265756d00000000000000000000000000000000000000000000000081525060079080519060200190620001ac92919062000286565b5060016008554260095562093a80600a5566038d7ea4c68000600b556000620001da6200027e60201b60201c565b9050806000806101000a81548173ffffffffffffffffffffffffffffffffffffffff021916908373ffffffffffffffffffffffffffffffffffffffff1602179055508073ffffffffffffffffffffffffffffffffffffffff16600073ffffffffffffffffffffffffffffffffffffffff167f8be0079c531659141344cd1fd0a4f28419497f9722a3daafe3b4186f6b6457e060405160405180910390a35062000335565b600033905090565b828054600181600116156101000203166002900490600052602060002090601f016020900481019282601f10620002c957805160ff1916838001178555620002fa565b82800160010185558215620002fa579182015b82811115620002f9578251825591602001919060010190620002dc565b5b5090506200030991906200030d565b5090565b6200033291905b808211156200032e57600081600090555060010162000314565b5090565b90565b61230080620003456000396000f3fe6080604052600436106101095760003560e01c80638f32d59b116100955780639bb5ce30116100645780639bb5ce3014610502578063af96d18a1461052d578063da72c93514610568578063e6fd48bc146105f8578063f2fde38b1461062357610109565b80638f32d59b146103dc57806392b0cd991461040b5780639635d1641461045257806398d5fdca146104d757610109565b80632716a509116100dc5780632716a50914610284578063715018a6146102af5780638524b856146102c657806388b29503146103565780638da5cb5b1461038557610109565b806302cea7321461010e5780630b34ec22146102145780631095846f1461023f57806322fa365e1461026d575b600080fd5b34801561011a57600080fd5b506101fe6004803603606081101561013157600080fd5b8101908080359060200190929190803573ffffffffffffffffffffffffffffffffffffffff1690602001909291908035906020019064010000000081111561017857600080fd5b82018360208201111561018a57600080fd5b803590602001918460018302840111640100000000831117156101ac57600080fd5b91908080601f016020809104026020016040519081016040528093929190818152602001838380828437600081840152601f19601f820116905080830192505050505050509192919290505050610674565b6040518082815260200191505060405180910390f35b34801561022057600080fd5b506102296106bc565b6040518082815260200191505060405180910390f35b61026b6004803603602081101561025557600080fd5b81019080803590602001909291905050506106c2565b005b34801561027957600080fd5b50610282610853565b005b34801561029057600080fd5b50610299610c2b565b6040518082815260200191505060405180910390f35b3480156102bb57600080fd5b506102c4610c31565b005b3480156102d257600080fd5b506102db610d6a565b6040518080602001828103825283818151815260200191508051906020019080838360005b8381101561031b578082015181840152602081019050610300565b50505050905090810190601f1680156103485780820380516001836020036101000a031916815260200191505b509250505060405180910390f35b34801561036257600080fd5b5061036b610e08565b604051808215151515815260200191505060405180910390f35b34801561039157600080fd5b5061039a610ee9565b604051808273ffffffffffffffffffffffffffffffffffffffff1673ffffffffffffffffffffffffffffffffffffffff16815260200191505060405180910390f35b3480156103e857600080fd5b506103f1610f12565b604051808215151515815260200191505060405180910390f35b34801561041757600080fd5b506104506004803603604081101561042e57600080fd5b8101908080351515906020019092919080359060200190929190505050610f70565b005b34801561045e57600080fd5b506104956004803603604081101561047557600080fd5b8101908080359060200190929190803590602001909291905050506115ad565b604051808273ffffffffffffffffffffffffffffffffffffffff1673ffffffffffffffffffffffffffffffffffffffff16815260200191505060405180910390f35b3480156104e357600080fd5b506104ec6115f8565b6040518082815260200191505060405180910390f35b34801561050e57600080fd5b506105176116a5565b6040518082815260200191505060405180910390f35b34801561053957600080fd5b506105666004803603602081101561055057600080fd5b81019080803590602001909291905050506116ab565b005b34801561057457600080fd5b5061057d611895565b6040518080602001828103825283818151815260200191508051906020019080838360005b838110156105bd5780820151818401526020810190506105a2565b50505050905090810190601f1680156105ea5780820380516001836020036101000a031916815260200191505b509250505060405180910390f35b34801561060457600080fd5b5061060d611933565b6040518082815260200191505060405180910390f35b34801561062f57600080fd5b506106726004803603602081101561064657600080fd5b81019080803573ffffffffffffffffffffffffffffffffffffffff169060200190929190505050611939565b005b60046020528260005260406000206020528160005260406000208180516020810182018051848252602083016020850120818352809550505050505060009250925050505481565b60085481565b80600854811161071d576040517f08c379a00000000000000000000000000000000000000000000000000000000081526004018080602001828103825260258152602001806121db6025913960400191505060405180910390fd5b338261072982826119bf565b1561077f576040517f08c379a000000000000000000000000000000000000000000000000000000000815260040180806020018281038252602481526020018061222e6024913960400191505060405180910390fd5b34600b54146107d9576040517f08c379a000000000000000000000000000000000000000000000000000000000815260040180806020018281038252602a8152602001806122a1602a913960400191505060405180910390fd5b60056000858152602001908152602001600020339080600181540180825580915050600190039060005260206000200160009091909190916101000a81548173ffffffffffffffffffffffffffffffffffffffff021916908373ffffffffffffffffffffffffffffffffffffffff16021790555050505050565b600a54600954014210156108cf576040517f08c379a000000000000000000000000000000000000000000000000000000000815260040180806020018281038252601b8152602001807f436f6d7065746974696f6e206973206e6f7420636c6f7361626c65000000000081525060200191505060405180910390fd5b6008546008541461092b576040517f08c379a00000000000000000000000000000000000000000000000000000000081526004018080602001828103825260238152602001806122526023913960400191505060405180910390fd5b3360085461093982826119bf565b6109ab576040517f08c379a00000000000000000000000000000000000000000000000000000000081526004018080602001828103825260208152602001807f547261646572206973206e6f7420696e2074686520636f6d7065746974696f6e81525060200191505060405180910390fd5b6060600560006008548152602001908152602001600020805480602002602001604051908101604052809291908181526020018280548015610a4257602002820191906000526020600020905b8160009054906101000a900473ffffffffffffffffffffffffffffffffffffffff1673ffffffffffffffffffffffffffffffffffffffff16815260200190600101908083116109f8575b5050505050905060608151604051908082528060200260200182016040528015610a7b5781602001602082028038833980820191505090505b50905060008090505b8251811015610ad157610aac600854848381518110610a9f57fe5b6020026020010151611ada565b828281518110610ab857fe5b6020026020010181815250508080600101915050610a84565b506000610ade8383611c6f565b90508073ffffffffffffffffffffffffffffffffffffffff166108fc479081150290604051600060405180830381858888f19350505050158015610b26573d6000803e3d6000fd5b507fcd1adcc51de7cd9677afe650d5757b4f8dd04c7a47e322a6177f71f14773ef59818484604051808473ffffffffffffffffffffffffffffffffffffffff1673ffffffffffffffffffffffffffffffffffffffff1681526020018060200180602001838103835285818151815260200191508051906020019060200280838360005b83811015610bc4578082015181840152602081019050610ba9565b50505050905001838103825284818151815260200191508051906020019060200280838360005b83811015610c06578082015181840152602081019050610beb565b505050509050019550505050505060405180910390a1610c24611d05565b5050505050565b600a5481565b610c39610f12565b610cab576040517f08c379a00000000000000000000000000000000000000000000000000000000081526004018080602001828103825260208152602001807f4f776e61626c653a2063616c6c6572206973206e6f7420746865206f776e657281525060200191505060405180910390fd5b600073ffffffffffffffffffffffffffffffffffffffff166000809054906101000a900473ffffffffffffffffffffffffffffffffffffffff1673ffffffffffffffffffffffffffffffffffffffff167f8be0079c531659141344cd1fd0a4f28419497f9722a3daafe3b4186f6b6457e060405160405180910390a360008060006101000a81548173ffffffffffffffffffffffffffffffffffffffff021916908373ffffffffffffffffffffffffffffffffffffffff160217905550565b60078054600181600116156101000203166002900480601f016020809104026020016040519081016040528092919081815260200182805460018160011615610100020316600290048015610e005780601f10610dd557610100808354040283529160200191610e00565b820191906000526020600020905b815481529060010190602001808311610de357829003601f168201915b505050505081565b6000600a5460095401421015610e86576040517f08c379a000000000000000000000000000000000000000000000000000000000815260040180806020018281038252601b8152602001807f436f6d7065746974696f6e206973206e6f7420636c6f7361626c65000000000081525060200191505060405180910390fd5b60085460085414610ee2576040517f08c379a00000000000000000000000000000000000000000000000000000000081526004018080602001828103825260238152602001806122526023913960400191505060405180910390fd5b6001905090565b60008060009054906101000a900473ffffffffffffffffffffffffffffffffffffffff16905090565b60008060009054906101000a900473ffffffffffffffffffffffffffffffffffffffff1673ffffffffffffffffffffffffffffffffffffffff16610f54611eb8565b73ffffffffffffffffffffffffffffffffffffffff1614905090565b33600854610f7e82826119bf565b610ff0576040517f08c379a00000000000000000000000000000000000000000000000000000000081526004018080602001828103825260208152602001807f547261646572206973206e6f7420696e2074686520636f6d7065746974696f6e81525060200191505060405180910390fd5b83338482151560011515141561112e57600061100b82611ec0565b90508060046000600854815260200190815260200160002060008573ffffffffffffffffffffffffffffffffffffffff1673ffffffffffffffffffffffffffffffffffffffff168152602001908152602001600020600660405180828054600181600116156101000203166002900480156110bd5780601f1061109b5761010080835404028352918201916110bd565b820191906000526020600020905b8154815290600101906020018083116110a9575b50509150509081526020016040518091039020541015611128576040517f08c379a000000000000000000000000000000000000000000000000000000000815260040180806020018281038252602e815260200180612200602e913960400191505060405180910390fd5b5061124a565b8060046000600854815260200190815260200160002060008473ffffffffffffffffffffffffffffffffffffffff1673ffffffffffffffffffffffffffffffffffffffff168152602001908152602001600020600760405180828054600181600116156101000203166002900480156111de5780601f106111bc5761010080835404028352918201916111de565b820191906000526020600020905b8154815290600101906020018083116111ca575b50509150509081526020016040518091039020541015611249576040517f08c379a000000000000000000000000000000000000000000000000000000000815260040180806020018281038252602c815260200180612275602c913960400191505060405180910390fd5b5b600061125587611ec0565b90508715611402578060046000600854815260200190815260200160002060003373ffffffffffffffffffffffffffffffffffffffff1673ffffffffffffffffffffffffffffffffffffffff1681526020019081526020016000206006604051808280546001816001161561010002031660029004801561130d5780601f106112eb57610100808354040283529182019161130d565b820191906000526020600020905b8154815290600101906020018083116112f9575b50509150509081526020016040518091039020600082825403925050819055508660046000600854815260200190815260200160002060003373ffffffffffffffffffffffffffffffffffffffff1673ffffffffffffffffffffffffffffffffffffffff168152602001908152602001600020600760405180828054600181600116156101000203166002900480156113dd5780601f106113bb5761010080835404028352918201916113dd565b820191906000526020600020905b8154815290600101906020018083116113c9575b50509150509081526020016040518091039020600082825401925050819055506115a3565b8060046000600854815260200190815260200160002060003373ffffffffffffffffffffffffffffffffffffffff1673ffffffffffffffffffffffffffffffffffffffff168152602001908152602001600020600660405180828054600181600116156101000203166002900480156114b25780601f106114905761010080835404028352918201916114b2565b820191906000526020600020905b81548152906001019060200180831161149e575b50509150509081526020016040518091039020600082825401925050819055508660046000600854815260200190815260200160002060003373ffffffffffffffffffffffffffffffffffffffff1673ffffffffffffffffffffffffffffffffffffffff168152602001908152602001600020600760405180828054600181600116156101000203166002900480156115825780601f10611560576101008083540402835291820191611582565b820191906000526020600020905b81548152906001019060200180831161156e575b50509150509081526020016040518091039020600082825403925050819055505b5050505050505050565b600560205281600052604060002081815481106115c657fe5b906000526020600020016000915091509054906101000a900473ffffffffffffffffffffffffffffffffffffffff1681565b6000600360009054906101000a900473ffffffffffffffffffffffffffffffffffffffff1673ffffffffffffffffffffffffffffffffffffffff166357de26a46040518163ffffffff1660e01b815260040160206040518083038186803b15801561166257600080fd5b505afa158015611676573d6000803e3d6000fd5b505050506040513d602081101561168c57600080fd5b810190808051906020019092919050505060001c905090565b600b5481565b806008548111611706576040517f08c379a00000000000000000000000000000000000000000000000000000000081526004018080602001828103825260258152602001806121db6025913960400191505060405180910390fd5b338261171282826119bf565b611784576040517f08c379a00000000000000000000000000000000000000000000000000000000081526004018080602001828103825260208152602001807f547261646572206973206e6f7420696e2074686520636f6d7065746974696f6e81525060200191505060405180910390fd5b60006118276005600087815260200190815260200160002080548060200260200160405190810160405280929190818152602001828054801561181c57602002820191906000526020600020905b8160009054906101000a900473ffffffffffffffffffffffffffffffffffffffff1673ffffffffffffffffffffffffffffffffffffffff16815260200190600101908083116117d2575b505050505033611ef4565b90506118456005600087815260200190815260200160002082611f6a565b3373ffffffffffffffffffffffffffffffffffffffff166108fc600b549081150290604051600060405180830381858888f1935050505015801561188d573d6000803e3d6000fd5b505050505050565b60068054600181600116156101000203166002900480601f01602080910402602001604051908101604052809291908181526020018280546001816001161561010002031660029004801561192b5780601f106119005761010080835404028352916020019161192b565b820191906000526020600020905b81548152906001019060200180831161190e57829003601f168201915b505050505081565b60095481565b611941610f12565b6119b3576040517f08c379a00000000000000000000000000000000000000000000000000000000081526004018080602001828103825260208152602001807f4f776e61626c653a2063616c6c6572206973206e6f7420746865206f776e657281525060200191505060405180910390fd5b6119bc81612070565b50565b6000606060056000848152602001908152602001600020805480602002602001604051908101604052809291908181526020018280548015611a5657602002820191906000526020600020905b8160009054906101000a900473ffffffffffffffffffffffffffffffffffffffff1673ffffffffffffffffffffffffffffffffffffffff1681526020019060010190808311611a0c575b50505050509050600080905060008090505b8251811015611ace578573ffffffffffffffffffffffffffffffffffffffff16838281518110611a9457fe5b602002602001015173ffffffffffffffffffffffffffffffffffffffff161415611ac15760019150611ace565b8080600101915050611a68565b50809250505092915050565b6000611ba56004600085815260200190815260200160002060008473ffffffffffffffffffffffffffffffffffffffff1673ffffffffffffffffffffffffffffffffffffffff16815260200190815260200160002060076040518082805460018160011615610100020316600290048015611b8c5780601f10611b6a576101008083540402835291820191611b8c565b820191906000526020600020905b815481529060010190602001808311611b78575b5050915050908152602001604051809103902054611ec0565b6004600085815260200190815260200160002060008473ffffffffffffffffffffffffffffffffffffffff1673ffffffffffffffffffffffffffffffffffffffff16815260200190815260200160002060066040518082805460018160011615610100020316600290048015611c525780601f10611c30576101008083540402835291820191611c52565b820191906000526020600020905b815481529060010190602001808311611c3e575b505091505090815260200160405180910390205401905092915050565b60008082600081518110611c7f57fe5b6020026020010151905060008090506000600190505b8551811015611ce05782858281518110611cab57fe5b60200260200101511115611cd357848181518110611cc557fe5b602002602001015192508091505b8080600101915050611c95565b506000858281518110611cef57fe5b6020026020010151905080935050505092915050565b426009819055506008600081548092919060010191905055506060600560006008548152602001908152602001600020805480602002602001604051908101604052809291908181526020018280548015611db557602002820191906000526020600020905b8160009054906101000a900473ffffffffffffffffffffffffffffffffffffffff1673ffffffffffffffffffffffffffffffffffffffff1681526020019060010190808311611d6b575b5050505050905060008090505b8151811015611eb4576103e86004600060085481526020019081526020016000206000848481518110611df157fe5b602002602001015173ffffffffffffffffffffffffffffffffffffffff1673ffffffffffffffffffffffffffffffffffffffff16815260200190815260200160002060076040518082805460018160011615610100020316600290048015611e905780601f10611e6e576101008083540402835291820191611e90565b820191906000526020600020905b815481529060010190602001808311611e7c575b50509150509081526020016040518091039020819055508080600101915050611dc2565b5050565b600033905090565b6000662386f26fc1000082670de0b6b3a7640000611edc6115f8565b81611ee357fe5b040281611eec57fe5b049050919050565b600080600090505b8351811015611f6257838181518110611f1157fe5b602002602001015173ffffffffffffffffffffffffffffffffffffffff168373ffffffffffffffffffffffffffffffffffffffff161415611f555780915050611f64565b8080600101915050611efc565b505b92915050565b81805490508110611f7a5761206c565b60008190505b600183805490500381101561202a57826001820181548110611f9e57fe5b9060005260206000200160009054906101000a900473ffffffffffffffffffffffffffffffffffffffff16838281548110611fd557fe5b9060005260206000200160006101000a81548173ffffffffffffffffffffffffffffffffffffffff021916908373ffffffffffffffffffffffffffffffffffffffff1602179055508080600101915050611f80565b508160018380549050038154811061203e57fe5b9060005260206000200160006101000a81549073ffffffffffffffffffffffffffffffffffffffff02191690555b5050565b600073ffffffffffffffffffffffffffffffffffffffff168173ffffffffffffffffffffffffffffffffffffffff1614156120f6576040517f08c379a00000000000000000000000000000000000000000000000000000000081526004018080602001828103825260268152602001806121b56026913960400191505060405180910390fd5b8073ffffffffffffffffffffffffffffffffffffffff166000809054906101000a900473ffffffffffffffffffffffffffffffffffffffff1673ffffffffffffffffffffffffffffffffffffffff167f8be0079c531659141344cd1fd0a4f28419497f9722a3daafe3b4186f6b6457e060405160405180910390a3806000806101000a81548173ffffffffffffffffffffffffffffffffffffffff021916908373ffffffffffffffffffffffffffffffffffffffff1602179055505056fe4f776e61626c653a206e6577206f776e657220697320746865207a65726f206164647265737354686520636f6d7065746974696f6e206973206f766572206f722069732072756e6e696e674e6f742073756666696369656e74207669727475616c2063757272656e63792062616c616e636520746f2062757954726164657220697320616c726561647920696e2074686520636f6d7065746974696f6e54686973206973206e6f74207468652063757272656e7420636f6d7065746974696f6e4e6f742073756666696369656e74207265616c2063757272656e63792062616c616e636520746f2073656c6c506c656173652073656e64207468652072657175697265642070617274696369706174696f6e20666565a2646970667358221220bdd13fab2fe0daa6790fb39eec6a0b14750e4395daa37acf2a17c7d6ad529b8164736f6c63430006010033",
  "source": "pragma solidity >=0.4.21 <0.7.0;\n\nimport \"./CryptoTraderInternal.sol\";\n\n/// @title Contract to challenge your trader friends with virtual coin. Real ether is needed to join competition.\n/// @author Quentin Brunet, Pierre Piron, Lo Legron, Prescilla Lecurieux\n/// @notice Student project, may contain bugs and security issues.\ncontract CryptoTrader is CryptoTraderInternal {\n    /// @notice Allow trader to join a competition with a small participation fee.\n    function joinCompetition(\n        uint _competitionId\n    ) external payable isFutureCompetition(_competitionId) isNotParticipant(msg.sender, _competitionId) {\n        require(participationFee == msg.value, \"Please send the required participation fee\");\n        competitionToTraders[_competitionId].push(msg.sender);\n    }\n\n    /// @notice Allow trader to leave a competition (refund the participation fee).\n    function leaveCompetition(\n        uint _competitionId\n    ) external isFutureCompetition(_competitionId) isParticipant(msg.sender, _competitionId) {\n        uint index = _findIndexOf(competitionToTraders[_competitionId], msg.sender);\n        _removeAtIndex(competitionToTraders[_competitionId], index);\n        msg.sender.transfer(participationFee);\n    }\n\n    /// @notice Allow trader to make a trader (buy or sell).\n    /// @param _buy (true => buy / false => sell)\n    /// @param _weiAmount (real currency amount to buy/sell in Wei)\n    function trade(\n        bool _buy,\n        uint _weiAmount\n    ) external isParticipant(msg.sender, currentCompetition) hasSufficientBalance(_buy, msg.sender, _weiAmount) {\n        uint virtualCurrencyAmount = _getVirtualCurrencyAmount(_weiAmount);\n\n        if (_buy) {\n            competitionToTraderToCurrencyToBalance[currentCompetition][msg.sender][virtualCurrency] -= virtualCurrencyAmount;\n            competitionToTraderToCurrencyToBalance[currentCompetition][msg.sender][realCurrency] += _weiAmount;\n        } else {\n            competitionToTraderToCurrencyToBalance[currentCompetition][msg.sender][virtualCurrency] += virtualCurrencyAmount;\n            competitionToTraderToCurrencyToBalance[currentCompetition][msg.sender][realCurrency] -= _weiAmount;\n        }\n    }\n\n    /// @notice Check if competition can be closed.\n    /// @return bool\n    function isCompetitionClosable() external view isClosable returns (bool) {\n        return true;\n    }\n\n    /// @notice Allow trader to close current competition. Start the next competition straight after.\n    function closeCompetition() external isClosable isParticipant(msg.sender, currentCompetition) {\n        address[] memory traders = competitionToTraders[currentCompetition];\n        uint[] memory balances = new uint[](traders.length);\n\n\n        for (uint i = 0; i < traders.length; i++) {\n            balances[i] = _getTotalBalance(currentCompetition, traders[i]);\n        }\n\n        address payable winner = _getWinner(traders, balances);\n\n        winner.transfer(address(this).balance);\n\n        emit CloseCompetition(winner, traders, balances);\n\n        _restartCompetition();\n    }\n}\n",
  "sourcePath": "/Users/quentin/Documents/work/school/5AMOC/Blockchain/5MOC-blockchain/contracts/CryptoTrader.sol",
  "compiler": {
    "name": "solc",
    "version": "0.6.1+commit.e6f7d5a4.Emscripten.clang"
  },
  "schemaVersion": "3.0.23",
  "updatedAt": "2020-03-13T11:51:44.309Z",
  "devdoc": {
    "author": "Quentin Brunet, Pierre Piron, Lo Legron, Prescilla Lecurieux",
    "methods": {
      "isOwner()": {
        "details": "Returns true if the caller is the current owner."
      },
      "owner()": {
        "details": "Returns the address of the current owner."
      },
      "renounceOwnership()": {
        "details": "Leaves the contract without owner. It will not be possible to call `onlyOwner` functions anymore. Can only be called by the current owner.     * NOTE: Renouncing ownership will leave the contract without an owner, thereby removing any functionality that is only available to the owner."
      },
      "trade(bool,uint256)": {
        "params": {
          "_buy": "(true => buy / false => sell)",
          "_weiAmount": "(real currency amount to buy/sell in Wei)"
        }
      },
      "transferOwnership(address)": {
        "details": "Transfers ownership of the contract to a new account (`newOwner`). Can only be called by the current owner."
      }
    },
    "title": "Contract to challenge your trader friends with virtual coin. Real ether is needed to join competition."
  },
  "userdoc": {
    "methods": {
      "closeCompetition()": {
        "notice": "Allow trader to close current competition. Start the next competition straight after."
      },
      "getPrice()": {
        "notice": "Allow anyone to get real currency current price in Wei."
      },
      "isCompetitionClosable()": {
        "notice": "Check if competition can be closed."
      },
      "joinCompetition(uint256)": {
        "notice": "Allow trader to join a competition with a small participation fee."
      },
      "leaveCompetition(uint256)": {
        "notice": "Allow trader to leave a competition (refund the participation fee)."
      },
      "trade(bool,uint256)": {
        "notice": "Allow trader to make a trader (buy or sell)."
      }
    },
    "notice": "Student project, may contain bugs and security issues."
  }
}