{
  "contractName": "CryptoTraderInternal",
  "abi": [
    {
      "anonymous": false,
      "inputs": [
        {
          "indexed": false,
          "internalType": "address",
          "name": "winner",
          "type": "address"
        },
        {
          "indexed": false,
          "internalType": "address[]",
          "name": "traders",
          "type": "address[]"
        },
        {
          "indexed": false,
          "internalType": "uint256[]",
          "name": "balances",
          "type": "uint256[]"
        }
      ],
      "name": "CloseCompetition",
      "type": "event"
    },
    {
      "anonymous": false,
      "inputs": [
        {
          "indexed": true,
          "internalType": "address",
          "name": "previousOwner",
          "type": "address"
        },
        {
          "indexed": true,
          "internalType": "address",
          "name": "newOwner",
          "type": "address"
        }
      ],
      "name": "OwnershipTransferred",
      "type": "event"
    },
    {
      "constant": true,
      "inputs": [],
      "name": "getPrice",
      "outputs": [
        {
          "internalType": "uint256",
          "name": "",
          "type": "uint256"
        }
      ],
      "payable": false,
      "stateMutability": "view",
      "type": "function"
    },
    {
      "constant": true,
      "inputs": [],
      "name": "isOwner",
      "outputs": [
        {
          "internalType": "bool",
          "name": "",
          "type": "bool"
        }
      ],
      "payable": false,
      "stateMutability": "view",
      "type": "function"
    },
    {
      "constant": true,
      "inputs": [],
      "name": "owner",
      "outputs": [
        {
          "internalType": "address",
          "name": "",
          "type": "address"
        }
      ],
      "payable": false,
      "stateMutability": "view",
      "type": "function"
    },
    {
      "constant": false,
      "inputs": [],
      "name": "renounceOwnership",
      "outputs": [],
      "payable": false,
      "stateMutability": "nonpayable",
      "type": "function"
    },
    {
      "constant": false,
      "inputs": [
        {
          "internalType": "address",
          "name": "newOwner",
          "type": "address"
        }
      ],
      "name": "transferOwnership",
      "outputs": [],
      "payable": false,
      "stateMutability": "nonpayable",
      "type": "function"
    }
  ],
  "bytecode": "0x60806040526040518060400160405280600a81526020017f547261646572436f696e000000000000000000000000000000000000000000008152506003908051906020019061004f929190610172565b506040518060400160405280600881526020017f457468657265756d0000000000000000000000000000000000000000000000008152506004908051906020019061009b929190610172565b5060016005554260065562093a8060075566038d7ea4c6800060085560006100c761016a60201b60201c565b9050806000806101000a81548173ffffffffffffffffffffffffffffffffffffffff021916908373ffffffffffffffffffffffffffffffffffffffff1602179055508073ffffffffffffffffffffffffffffffffffffffff16600073ffffffffffffffffffffffffffffffffffffffff167f8be0079c531659141344cd1fd0a4f28419497f9722a3daafe3b4186f6b6457e060405160405180910390a350610217565b600033905090565b828054600181600116156101000203166002900490600052602060002090601f016020900481019282601f106101b357805160ff19168380011785556101e1565b828001600101855582156101e1579182015b828111156101e05782518255916020019190600101906101c5565b5b5090506101ee91906101f2565b5090565b61021491905b808211156102105760008160009055506001016101f8565b5090565b90565b61056c806102266000396000f3fe608060405234801561001057600080fd5b50600436106100575760003560e01c8063715018a61461005c5780638da5cb5b146100665780638f32d59b146100b057806398d5fdca146100d2578063f2fde38b146100f0575b600080fd5b610064610134565b005b61006e61026d565b604051808273ffffffffffffffffffffffffffffffffffffffff1673ffffffffffffffffffffffffffffffffffffffff16815260200191505060405180910390f35b6100b8610296565b604051808215151515815260200191505060405180910390f35b6100da6102f4565b6040518082815260200191505060405180910390f35b6101326004803603602081101561010657600080fd5b81019080803573ffffffffffffffffffffffffffffffffffffffff169060200190929190505050610303565b005b61013c610296565b6101ae576040517f08c379a00000000000000000000000000000000000000000000000000000000081526004018080602001828103825260208152602001807f4f776e61626c653a2063616c6c6572206973206e6f7420746865206f776e657281525060200191505060405180910390fd5b600073ffffffffffffffffffffffffffffffffffffffff166000809054906101000a900473ffffffffffffffffffffffffffffffffffffffff1673ffffffffffffffffffffffffffffffffffffffff167f8be0079c531659141344cd1fd0a4f28419497f9722a3daafe3b4186f6b6457e060405160405180910390a360008060006101000a81548173ffffffffffffffffffffffffffffffffffffffff021916908373ffffffffffffffffffffffffffffffffffffffff160217905550565b60008060009054906101000a900473ffffffffffffffffffffffffffffffffffffffff16905090565b60008060009054906101000a900473ffffffffffffffffffffffffffffffffffffffff1673ffffffffffffffffffffffffffffffffffffffff166102d8610389565b73ffffffffffffffffffffffffffffffffffffffff1614905090565b60006102fe610391565b905090565b61030b610296565b61037d576040517f08c379a00000000000000000000000000000000000000000000000000000000081526004018080602001828103825260208152602001807f4f776e61626c653a2063616c6c6572206973206e6f7420746865206f776e657281525060200191505060405180910390fd5b610386816103cd565b50565b600033905090565b60006103e942604051602001808281526020019150506040516020818303038152906040528051906020012060001c816103c757fe5b06905090565b600073ffffffffffffffffffffffffffffffffffffffff168173ffffffffffffffffffffffffffffffffffffffff161415610453576040517f08c379a00000000000000000000000000000000000000000000000000000000081526004018080602001828103825260268152602001806105126026913960400191505060405180910390fd5b8073ffffffffffffffffffffffffffffffffffffffff166000809054906101000a900473ffffffffffffffffffffffffffffffffffffffff1673ffffffffffffffffffffffffffffffffffffffff167f8be0079c531659141344cd1fd0a4f28419497f9722a3daafe3b4186f6b6457e060405160405180910390a3806000806101000a81548173ffffffffffffffffffffffffffffffffffffffff021916908373ffffffffffffffffffffffffffffffffffffffff1602179055505056fe4f776e61626c653a206e6577206f776e657220697320746865207a65726f2061646472657373a265627a7a72315820f2816aa503f2d9b99036564d86c3380bca0b708abe6545b5bd8341a084a74e1264736f6c63430005100032",
  "source": "pragma solidity >=0.4.21 <0.7.0;\n\nimport \"./CryptoTraderBase.sol\";\n\n/// @title InternalContract for CryptoTrader. Extends CryptoTraderBase. Defines internal functions.\n/// @author Quentin Brunet, Pierre Piron, Léo Legron, Prescilla Lecurieux\n/// @notice Student project, may contain bugs and security issues.\ncontract CryptoTraderInternal is CryptoTraderBase {\n    /// @notice Restart competition after current one has been closed.\n    /// @return void\n    function _restartCompetition() internal {\n        startTimestamp = now;\n        currentCompetition++;\n\n        address[] memory traders = competitionToTraders[currentCompetition];\n\n        for (uint i = 0; i < traders.length; i++) {\n            competitionToTraderToCurrencyToBalance[currentCompetition][traders[i]][realCurrency] = 1000;\n        }\n    }\n\n    /// @notice Find the competition winner (the one who has the bigger balance) and return it.\n    /// @return address payable (winner)\n    function _getWinner(address[] memory traders, uint[] memory balances) internal pure returns (address payable) {\n        uint maxBalance = balances[0];\n        uint indexWinner = 0;\n\n        for (uint i = 1; i < traders.length; i++) {\n            if (balances[i] > maxBalance) {\n                maxBalance = balances[i];\n                indexWinner = i;\n            }\n        }\n\n        address winner = traders[indexWinner];\n        // cast to address payable\n        return address(uint160(winner));\n    }\n\n    /// @notice Calculate the total balance of a trader in virtual coin.\n    /// @return uint\n    function _getTotalBalance(uint _competitionId, address _trader) internal view returns (uint) {\n        return competitionToTraderToCurrencyToBalance[_competitionId][_trader][virtualCurrency] +\n            competitionToTraderToCurrencyToBalance[_competitionId][_trader][realCurrency] /\n            getPrice();\n    }\n}\n",
  "sourcePath": "/Users/quentin/Documents/work/school/5AMOC/Blockchain/5MOC-blockchain/contracts/CryptoTraderInternal.sol",
  "compiler": {
    "name": "solc",
    "version": "0.5.16+commit.9c3226ce.Emscripten.clang"
  },
  "schemaVersion": "3.0.23",
  "updatedAt": "2020-03-13T09:20:04.037Z",
  "devdoc": {
    "author": "Quentin Brunet, Pierre Piron, Léo Legron, Prescilla Lecurieux",
    "methods": {
      "getPrice()": {
        "details": "TODO: implement price feeder method",
        "return": "uint"
      },
      "isOwner()": {
        "details": "Returns true if the caller is the current owner."
      },
      "owner()": {
        "details": "Returns the address of the current owner."
      },
      "renounceOwnership()": {
        "details": "Leaves the contract without owner. It will not be possible to call `onlyOwner` functions anymore. Can only be called by the current owner.     * NOTE: Renouncing ownership will leave the contract without an owner, thereby removing any functionality that is only available to the owner."
      },
      "transferOwnership(address)": {
        "details": "Transfers ownership of the contract to a new account (`newOwner`). Can only be called by the current owner."
      }
    },
    "title": "InternalContract for CryptoTrader. Extends CryptoTraderBase. Defines internal functions."
  },
  "userdoc": {
    "methods": {
      "getPrice()": {
        "notice": "Allow anyone to get real currency current price in Ether."
      }
    },
    "notice": "Student project, may contain bugs and security issues."
  }
}