{
  "contractName": "CryptoTrader",
  "abi": [
    {
      "anonymous": false,
      "inputs": [
        {
          "indexed": false,
          "internalType": "address",
          "name": "winner",
          "type": "address"
        },
        {
          "indexed": false,
          "internalType": "address[]",
          "name": "traders",
          "type": "address[]"
        },
        {
          "indexed": false,
          "internalType": "uint256[]",
          "name": "balances",
          "type": "uint256[]"
        }
      ],
      "name": "CloseCompetition",
      "type": "event"
    },
    {
      "anonymous": false,
      "inputs": [
        {
          "indexed": true,
          "internalType": "address",
          "name": "previousOwner",
          "type": "address"
        },
        {
          "indexed": true,
          "internalType": "address",
          "name": "newOwner",
          "type": "address"
        }
      ],
      "name": "OwnershipTransferred",
      "type": "event"
    },
    {
      "constant": true,
      "inputs": [],
      "name": "getPrice",
      "outputs": [
        {
          "internalType": "uint256",
          "name": "",
          "type": "uint256"
        }
      ],
      "payable": false,
      "stateMutability": "view",
      "type": "function"
    },
    {
      "constant": true,
      "inputs": [],
      "name": "isOwner",
      "outputs": [
        {
          "internalType": "bool",
          "name": "",
          "type": "bool"
        }
      ],
      "payable": false,
      "stateMutability": "view",
      "type": "function"
    },
    {
      "constant": true,
      "inputs": [],
      "name": "owner",
      "outputs": [
        {
          "internalType": "address",
          "name": "",
          "type": "address"
        }
      ],
      "payable": false,
      "stateMutability": "view",
      "type": "function"
    },
    {
      "constant": false,
      "inputs": [],
      "name": "renounceOwnership",
      "outputs": [],
      "payable": false,
      "stateMutability": "nonpayable",
      "type": "function"
    },
    {
      "constant": false,
      "inputs": [
        {
          "internalType": "address",
          "name": "newOwner",
          "type": "address"
        }
      ],
      "name": "transferOwnership",
      "outputs": [],
      "payable": false,
      "stateMutability": "nonpayable",
      "type": "function"
    },
    {
      "constant": false,
      "inputs": [
        {
          "internalType": "uint256",
          "name": "_competitionId",
          "type": "uint256"
        }
      ],
      "name": "joinCompetition",
      "outputs": [],
      "payable": true,
      "stateMutability": "payable",
      "type": "function"
    },
    {
      "constant": false,
      "inputs": [
        {
          "internalType": "uint256",
          "name": "_competitionId",
          "type": "uint256"
        }
      ],
      "name": "leaveCompetition",
      "outputs": [],
      "payable": false,
      "stateMutability": "nonpayable",
      "type": "function"
    },
    {
      "constant": false,
      "inputs": [
        {
          "internalType": "bool",
          "name": "_buy",
          "type": "bool"
        },
        {
          "internalType": "uint256",
          "name": "_amount",
          "type": "uint256"
        }
      ],
      "name": "trade",
      "outputs": [],
      "payable": false,
      "stateMutability": "nonpayable",
      "type": "function"
    },
    {
      "constant": true,
      "inputs": [],
      "name": "isCompetitionClosable",
      "outputs": [
        {
          "internalType": "bool",
          "name": "",
          "type": "bool"
        }
      ],
      "payable": false,
      "stateMutability": "view",
      "type": "function"
    },
    {
      "constant": false,
      "inputs": [],
      "name": "closeCompetition",
      "outputs": [],
      "payable": false,
      "stateMutability": "nonpayable",
      "type": "function"
    }
  ],
  "bytecode": "0x60806040526040518060400160405280600a81526020017f547261646572436f696e00000000000000000000000000000000000000000000815250600390805190602001906200005192919062000179565b506040518060400160405280600881526020017f457468657265756d000000000000000000000000000000000000000000000000815250600490805190602001906200009f92919062000179565b5060016005554260065562093a8060075566038d7ea4c680006008556000620000cd6200017160201b60201c565b9050806000806101000a81548173ffffffffffffffffffffffffffffffffffffffff021916908373ffffffffffffffffffffffffffffffffffffffff1602179055508073ffffffffffffffffffffffffffffffffffffffff16600073ffffffffffffffffffffffffffffffffffffffff167f8be0079c531659141344cd1fd0a4f28419497f9722a3daafe3b4186f6b6457e060405160405180910390a35062000228565b600033905090565b828054600181600116156101000203166002900490600052602060002090601f016020900481019282601f10620001bc57805160ff1916838001178555620001ed565b82800160010185558215620001ed579182015b82811115620001ec578251825591602001919060010190620001cf565b5b509050620001fc919062000200565b5090565b6200022591905b808211156200022157600081600090555060010162000207565b5090565b90565b611ce080620002386000396000f3fe6080604052600436106100915760003560e01c80638f32d59b116100595780638f32d59b1461017857806392b0cd99146101a757806398d5fdca146101ee578063af96d18a14610219578063f2fde38b1461025457610091565b80631095846f1461009657806322fa365e146100c4578063715018a6146100db57806388b29503146100f25780638da5cb5b14610121575b600080fd5b6100c2600480360360208110156100ac57600080fd5b81019080803590602001909291905050506102a5565b005b3480156100d057600080fd5b506100d9610439565b005b3480156100e757600080fd5b506100f0610811565b005b3480156100fe57600080fd5b5061010761094a565b604051808215151515815260200191505060405180910390f35b34801561012d57600080fd5b50610136610a2b565b604051808273ffffffffffffffffffffffffffffffffffffffff1673ffffffffffffffffffffffffffffffffffffffff16815260200191505060405180910390f35b34801561018457600080fd5b5061018d610a54565b604051808215151515815260200191505060405180910390f35b3480156101b357600080fd5b506101ec600480360360408110156101ca57600080fd5b8101908080351515906020019092919080359060200190929190505050610ab2565b005b3480156101fa57600080fd5b50610203611111565b6040518082815260200191505060405180910390f35b34801561022557600080fd5b506102526004803603602081101561023c57600080fd5b8101908080359060200190929190505050611120565b005b34801561026057600080fd5b506102a36004803603602081101561027757600080fd5b81019080803573ffffffffffffffffffffffffffffffffffffffff16906020019092919050505061130a565b005b806005548111610300576040517f08c379a0000000000000000000000000000000000000000000000000000000008152600401808060200182810382526025815260200180611bbc6025913960400191505060405180910390fd5b338261030c8282611390565b15610362576040517f08c379a0000000000000000000000000000000000000000000000000000000008152600401808060200182810382526024815260200180611c0f6024913960400191505060405180910390fd5b34600854146103bc576040517f08c379a000000000000000000000000000000000000000000000000000000000815260040180806020018281038252602a815260200180611c82602a913960400191505060405180910390fd5b600260008581526020019081526020016000203390806001815401808255809150509060018203906000526020600020016000909192909190916101000a81548173ffffffffffffffffffffffffffffffffffffffff021916908373ffffffffffffffffffffffffffffffffffffffff1602179055505050505050565b600754600654014210156104b5576040517f08c379a000000000000000000000000000000000000000000000000000000000815260040180806020018281038252601b8152602001807f436f6d7065746974696f6e206973206e6f7420636c6f7361626c65000000000081525060200191505060405180910390fd5b60055460055414610511576040517f08c379a0000000000000000000000000000000000000000000000000000000008152600401808060200182810382526023815260200180611c336023913960400191505060405180910390fd5b3360055461051f8282611390565b610591576040517f08c379a00000000000000000000000000000000000000000000000000000000081526004018080602001828103825260208152602001807f547261646572206973206e6f7420696e2074686520636f6d7065746974696f6e81525060200191505060405180910390fd5b606060026000600554815260200190815260200160002080548060200260200160405190810160405280929190818152602001828054801561062857602002820191906000526020600020905b8160009054906101000a900473ffffffffffffffffffffffffffffffffffffffff1673ffffffffffffffffffffffffffffffffffffffff16815260200190600101908083116105de575b50505050509050606081516040519080825280602002602001820160405280156106615781602001602082028038833980820191505090505b50905060008090505b82518110156106b75761069260055484838151811061068557fe5b60200260200101516114ab565b82828151811061069e57fe5b602002602001018181525050808060010191505061066a565b5060006106c48383611648565b90508073ffffffffffffffffffffffffffffffffffffffff166108fc479081150290604051600060405180830381858888f1935050505015801561070c573d6000803e3d6000fd5b507fcd1adcc51de7cd9677afe650d5757b4f8dd04c7a47e322a6177f71f14773ef59818484604051808473ffffffffffffffffffffffffffffffffffffffff1673ffffffffffffffffffffffffffffffffffffffff1681526020018060200180602001838103835285818151815260200191508051906020019060200280838360005b838110156107aa57808201518184015260208101905061078f565b50505050905001838103825284818151815260200191508051906020019060200280838360005b838110156107ec5780820151818401526020810190506107d1565b505050509050019550505050505060405180910390a161080a6116de565b5050505050565b610819610a54565b61088b576040517f08c379a00000000000000000000000000000000000000000000000000000000081526004018080602001828103825260208152602001807f4f776e61626c653a2063616c6c6572206973206e6f7420746865206f776e657281525060200191505060405180910390fd5b600073ffffffffffffffffffffffffffffffffffffffff166000809054906101000a900473ffffffffffffffffffffffffffffffffffffffff1673ffffffffffffffffffffffffffffffffffffffff167f8be0079c531659141344cd1fd0a4f28419497f9722a3daafe3b4186f6b6457e060405160405180910390a360008060006101000a81548173ffffffffffffffffffffffffffffffffffffffff021916908373ffffffffffffffffffffffffffffffffffffffff160217905550565b6000600754600654014210156109c8576040517f08c379a000000000000000000000000000000000000000000000000000000000815260040180806020018281038252601b8152602001807f436f6d7065746974696f6e206973206e6f7420636c6f7361626c65000000000081525060200191505060405180910390fd5b60055460055414610a24576040517f08c379a0000000000000000000000000000000000000000000000000000000008152600401808060200182810382526023815260200180611c336023913960400191505060405180910390fd5b6001905090565b60008060009054906101000a900473ffffffffffffffffffffffffffffffffffffffff16905090565b60008060009054906101000a900473ffffffffffffffffffffffffffffffffffffffff1673ffffffffffffffffffffffffffffffffffffffff16610a96611891565b73ffffffffffffffffffffffffffffffffffffffff1614905090565b33600554610ac08282611390565b610b32576040517f08c379a00000000000000000000000000000000000000000000000000000000081526004018080602001828103825260208152602001807f547261646572206973206e6f7420696e2074686520636f6d7065746974696f6e81525060200191505060405180910390fd5b833384821515600115151415610c81576000662386f26fc1000082610b55611111565b0281610b5d57fe5b0490508060016000600554815260200190815260200160002060008573ffffffffffffffffffffffffffffffffffffffff1673ffffffffffffffffffffffffffffffffffffffff16815260200190815260200160002060036040518082805460018160011615610100020316600290048015610c105780601f10610bee576101008083540402835291820191610c10565b820191906000526020600020905b815481529060010190602001808311610bfc575b50509150509081526020016040518091039020541015610c7b576040517f08c379a000000000000000000000000000000000000000000000000000000000815260040180806020018281038252602e815260200180611be1602e913960400191505060405180910390fd5b50610d9d565b8060016000600554815260200190815260200160002060008473ffffffffffffffffffffffffffffffffffffffff1673ffffffffffffffffffffffffffffffffffffffff16815260200190815260200160002060046040518082805460018160011615610100020316600290048015610d315780601f10610d0f576101008083540402835291820191610d31565b820191906000526020600020905b815481529060010190602001808311610d1d575b50509150509081526020016040518091039020541015610d9c576040517f08c379a000000000000000000000000000000000000000000000000000000000815260040180806020018281038252602c815260200180611c56602c913960400191505060405180910390fd5b5b6000662386f26fc1000087610db0611111565b0281610db857fe5b0490508715610f66578060016000600554815260200190815260200160002060003373ffffffffffffffffffffffffffffffffffffffff1673ffffffffffffffffffffffffffffffffffffffff16815260200190815260200160002060036040518082805460018160011615610100020316600290048015610e715780601f10610e4f576101008083540402835291820191610e71565b820191906000526020600020905b815481529060010190602001808311610e5d575b50509150509081526020016040518091039020600082825403925050819055508660016000600554815260200190815260200160002060003373ffffffffffffffffffffffffffffffffffffffff1673ffffffffffffffffffffffffffffffffffffffff16815260200190815260200160002060046040518082805460018160011615610100020316600290048015610f415780601f10610f1f576101008083540402835291820191610f41565b820191906000526020600020905b815481529060010190602001808311610f2d575b5050915050908152602001604051809103902060008282540192505081905550611107565b8060016000600554815260200190815260200160002060003373ffffffffffffffffffffffffffffffffffffffff1673ffffffffffffffffffffffffffffffffffffffff168152602001908152602001600020600360405180828054600181600116156101000203166002900480156110165780601f10610ff4576101008083540402835291820191611016565b820191906000526020600020905b815481529060010190602001808311611002575b50509150509081526020016040518091039020600082825401925050819055508660016000600554815260200190815260200160002060003373ffffffffffffffffffffffffffffffffffffffff1673ffffffffffffffffffffffffffffffffffffffff168152602001908152602001600020600460405180828054600181600116156101000203166002900480156110e65780601f106110c45761010080835404028352918201916110e6565b820191906000526020600020905b8154815290600101906020018083116110d2575b50509150509081526020016040518091039020600082825403925050819055505b5050505050505050565b600061111b611899565b905090565b80600554811161117b576040517f08c379a0000000000000000000000000000000000000000000000000000000008152600401808060200182810382526025815260200180611bbc6025913960400191505060405180910390fd5b33826111878282611390565b6111f9576040517f08c379a00000000000000000000000000000000000000000000000000000000081526004018080602001828103825260208152602001807f547261646572206973206e6f7420696e2074686520636f6d7065746974696f6e81525060200191505060405180910390fd5b600061129c6002600087815260200190815260200160002080548060200260200160405190810160405280929190818152602001828054801561129157602002820191906000526020600020905b8160009054906101000a900473ffffffffffffffffffffffffffffffffffffffff1673ffffffffffffffffffffffffffffffffffffffff1681526020019060010190808311611247575b5050505050336118d5565b90506112ba600260008781526020019081526020016000208261194b565b3373ffffffffffffffffffffffffffffffffffffffff166108fc6008549081150290604051600060405180830381858888f19350505050158015611302573d6000803e3d6000fd5b505050505050565b611312610a54565b611384576040517f08c379a00000000000000000000000000000000000000000000000000000000081526004018080602001828103825260208152602001807f4f776e61626c653a2063616c6c6572206973206e6f7420746865206f776e657281525060200191505060405180910390fd5b61138d81611a51565b50565b600060606002600084815260200190815260200160002080548060200260200160405190810160405280929190818152602001828054801561142757602002820191906000526020600020905b8160009054906101000a900473ffffffffffffffffffffffffffffffffffffffff1673ffffffffffffffffffffffffffffffffffffffff16815260200190600101908083116113dd575b50505050509050600080905060008090505b825181101561149f578573ffffffffffffffffffffffffffffffffffffffff1683828151811061146557fe5b602002602001015173ffffffffffffffffffffffffffffffffffffffff161415611492576001915061149f565b8080600101915050611439565b50809250505092915050565b60006114b5611111565b6001600085815260200190815260200160002060008473ffffffffffffffffffffffffffffffffffffffff1673ffffffffffffffffffffffffffffffffffffffff168152602001908152602001600020600460405180828054600181600116156101000203166002900480156115625780601f10611540576101008083540402835291820191611562565b820191906000526020600020905b81548152906001019060200180831161154e575b50509150509081526020016040518091039020548161157d57fe5b046001600085815260200190815260200160002060008473ffffffffffffffffffffffffffffffffffffffff1673ffffffffffffffffffffffffffffffffffffffff1681526020019081526020016000206003604051808280546001816001161561010002031660029004801561162b5780601f1061160957610100808354040283529182019161162b565b820191906000526020600020905b815481529060010190602001808311611617575b505091505090815260200160405180910390205401905092915050565b6000808260008151811061165857fe5b6020026020010151905060008090506000600190505b85518110156116b9578285828151811061168457fe5b602002602001015111156116ac5784818151811061169e57fe5b602002602001015192508091505b808060010191505061166e565b5060008582815181106116c857fe5b6020026020010151905080935050505092915050565b42600681905550600560008154809291906001019190505550606060026000600554815260200190815260200160002080548060200260200160405190810160405280929190818152602001828054801561178e57602002820191906000526020600020905b8160009054906101000a900473ffffffffffffffffffffffffffffffffffffffff1673ffffffffffffffffffffffffffffffffffffffff1681526020019060010190808311611744575b5050505050905060008090505b815181101561188d576103e860016000600554815260200190815260200160002060008484815181106117ca57fe5b602002602001015173ffffffffffffffffffffffffffffffffffffffff1673ffffffffffffffffffffffffffffffffffffffff168152602001908152602001600020600460405180828054600181600116156101000203166002900480156118695780601f10611847576101008083540402835291820191611869565b820191906000526020600020905b815481529060010190602001808311611855575b5050915050908152602001604051809103902081905550808060010191505061179b565b5050565b600033905090565b60006103e942604051602001808281526020019150506040516020818303038152906040528051906020012060001c816118cf57fe5b06905090565b600080600090505b8351811015611943578381815181106118f257fe5b602002602001015173ffffffffffffffffffffffffffffffffffffffff168373ffffffffffffffffffffffffffffffffffffffff1614156119365780915050611945565b80806001019150506118dd565b505b92915050565b8180549050811061195b57611a4d565b60008190505b6001838054905003811015611a0b5782600182018154811061197f57fe5b9060005260206000200160009054906101000a900473ffffffffffffffffffffffffffffffffffffffff168382815481106119b657fe5b9060005260206000200160006101000a81548173ffffffffffffffffffffffffffffffffffffffff021916908373ffffffffffffffffffffffffffffffffffffffff1602179055508080600101915050611961565b5081600183805490500381548110611a1f57fe5b9060005260206000200160006101000a81549073ffffffffffffffffffffffffffffffffffffffff02191690555b5050565b600073ffffffffffffffffffffffffffffffffffffffff168173ffffffffffffffffffffffffffffffffffffffff161415611ad7576040517f08c379a0000000000000000000000000000000000000000000000000000000008152600401808060200182810382526026815260200180611b966026913960400191505060405180910390fd5b8073ffffffffffffffffffffffffffffffffffffffff166000809054906101000a900473ffffffffffffffffffffffffffffffffffffffff1673ffffffffffffffffffffffffffffffffffffffff167f8be0079c531659141344cd1fd0a4f28419497f9722a3daafe3b4186f6b6457e060405160405180910390a3806000806101000a81548173ffffffffffffffffffffffffffffffffffffffff021916908373ffffffffffffffffffffffffffffffffffffffff1602179055505056fe4f776e61626c653a206e6577206f776e657220697320746865207a65726f206164647265737354686520636f6d7065746974696f6e206973206f766572206f722069732072756e6e696e674e6f742073756666696369656e74207669727475616c2063757272656e63792062616c616e636520746f2062757954726164657220697320616c726561647920696e2074686520636f6d7065746974696f6e54686973206973206e6f74207468652063757272656e7420636f6d7065746974696f6e4e6f742073756666696369656e74207265616c2063757272656e63792062616c616e636520746f2073656c6c506c656173652073656e64207468652072657175697265642070617274696369706174696f6e20666565a265627a7a72315820517423cc3fe543f28a3b2049779ffb757a79d7abac737dde3409821c76a1826464736f6c63430005100032",
  "source": "pragma solidity >=0.4.21 <0.7.0;\n\nimport \"./CryptoTraderInternal.sol\";\n\n/// @title Contract to challenge your trader friends with virtual coin. Real ether is needed to join competition.\n/// @author Quentin Brunet, Pierre Piron, Lo Legron, Prescilla Lecurieux\n/// @notice Student project, may contain bugs and security issues.\ncontract CryptoTrader is CryptoTraderInternal {\n    /// @notice Allow trader to join a competition with a small participation fee.\n    /// @return void\n    function joinCompetition(\n        uint _competitionId\n    ) external payable isFutureCompetition(_competitionId) isNotParticipant(msg.sender, _competitionId) {\n        require(participationFee == msg.value, \"Please send the required participation fee\");\n        competitionToTraders[_competitionId].push(msg.sender);\n    }\n\n    /// @notice Allow trader to leave a competition (refund the participation fee).\n    /// @return void\n    function leaveCompetition(\n        uint _competitionId\n    ) external isFutureCompetition(_competitionId) isParticipant(msg.sender, _competitionId) {\n        uint index = _findIndexOf(competitionToTraders[_competitionId], msg.sender);\n        _removeAtIndex(competitionToTraders[_competitionId], index);\n        msg.sender.transfer(participationFee);\n    }\n\n    /// @notice Allow trader to make a trader (buy or sell).\n    /// @param _buy (true => buy / false => sell)\n    /// @param _amount (real currency amount to buy/sell in Wei)\n    /// @return void\n    function trade(\n        bool _buy,\n        uint _amount\n    ) external isParticipant(msg.sender, currentCompetition) hasSufficientBalance(_buy, msg.sender, _amount) {\n        uint virtualCurrencyAmount = getPrice() * _amount / (10 ** 16); // in centimes\n\n        if (_buy) {\n            competitionToTraderToCurrencyToBalance[currentCompetition][msg.sender][virtualCurrency] -= virtualCurrencyAmount;\n            competitionToTraderToCurrencyToBalance[currentCompetition][msg.sender][realCurrency] += _amount;\n        } else {\n            competitionToTraderToCurrencyToBalance[currentCompetition][msg.sender][virtualCurrency] += virtualCurrencyAmount;\n            competitionToTraderToCurrencyToBalance[currentCompetition][msg.sender][realCurrency] -= _amount;\n        }\n    }\n\n    /// @notice Check if competition can be closed.\n    /// @return bool\n    function isCompetitionClosable() external view isClosable returns (bool) {\n        return true;\n    }\n\n    /// @notice Allow trader to close current competition. Start the next competition straight after.\n    /// @return void\n    function closeCompetition() external isClosable isParticipant(msg.sender, currentCompetition) {\n        address[] memory traders = competitionToTraders[currentCompetition];\n        uint[] memory balances = new uint[](traders.length);\n\n\n        for (uint i = 0; i < traders.length; i++) {\n            balances[i] = _getTotalBalance(currentCompetition, traders[i]);\n        }\n\n        address payable winner = _getWinner(traders, balances);\n\n        winner.transfer(address(this).balance);\n\n        emit CloseCompetition(winner, traders, balances);\n\n        _restartCompetition();\n    }\n}\n",
  "sourcePath": "/Users/quentin/Documents/work/school/5AMOC/Blockchain/5MOC-blockchain/contracts/CryptoTrader.sol",
  "compiler": {
    "name": "solc",
    "version": "0.5.16+commit.9c3226ce.Emscripten.clang"
  },
  "schemaVersion": "3.0.23",
  "updatedAt": "2020-03-13T09:20:04.019Z",
  "devdoc": {
    "author": "Quentin Brunet, Pierre Piron, Lo Legron, Prescilla Lecurieux",
    "methods": {
      "closeCompetition()": {
        "return": "void"
      },
      "getPrice()": {
        "details": "TODO: implement price feeder method",
        "return": "uint"
      },
      "isCompetitionClosable()": {
        "return": "bool"
      },
      "isOwner()": {
        "details": "Returns true if the caller is the current owner."
      },
      "joinCompetition(uint256)": {
        "return": "void"
      },
      "leaveCompetition(uint256)": {
        "return": "void"
      },
      "owner()": {
        "details": "Returns the address of the current owner."
      },
      "renounceOwnership()": {
        "details": "Leaves the contract without owner. It will not be possible to call `onlyOwner` functions anymore. Can only be called by the current owner.     * NOTE: Renouncing ownership will leave the contract without an owner, thereby removing any functionality that is only available to the owner."
      },
      "trade(bool,uint256)": {
        "params": {
          "_amount": "(real currency amount to buy/sell in Wei)",
          "_buy": "(true => buy / false => sell)"
        },
        "return": "void"
      },
      "transferOwnership(address)": {
        "details": "Transfers ownership of the contract to a new account (`newOwner`). Can only be called by the current owner."
      }
    },
    "title": "Contract to challenge your trader friends with virtual coin. Real ether is needed to join competition."
  },
  "userdoc": {
    "methods": {
      "closeCompetition()": {
        "notice": "Allow trader to close current competition. Start the next competition straight after."
      },
      "getPrice()": {
        "notice": "Allow anyone to get real currency current price in Ether."
      },
      "isCompetitionClosable()": {
        "notice": "Check if competition can be closed."
      },
      "joinCompetition(uint256)": {
        "notice": "Allow trader to join a competition with a small participation fee."
      },
      "leaveCompetition(uint256)": {
        "notice": "Allow trader to leave a competition (refund the participation fee)."
      },
      "trade(bool,uint256)": {
        "notice": "Allow trader to make a trader (buy or sell)."
      }
    },
    "notice": "Student project, may contain bugs and security issues."
  }
}