{
  "contractName": "DSAuth",
  "abi": [
    {
      "inputs": [],
      "stateMutability": "nonpayable",
      "type": "constructor"
    },
    {
      "anonymous": false,
      "inputs": [
        {
          "indexed": true,
          "internalType": "address",
          "name": "authority",
          "type": "address"
        }
      ],
      "name": "LogSetAuthority",
      "type": "event"
    },
    {
      "anonymous": false,
      "inputs": [
        {
          "indexed": true,
          "internalType": "address",
          "name": "owner",
          "type": "address"
        }
      ],
      "name": "LogSetOwner",
      "type": "event"
    },
    {
      "inputs": [],
      "name": "authority",
      "outputs": [
        {
          "internalType": "contract DSAuthority",
          "name": "",
          "type": "address"
        }
      ],
      "stateMutability": "view",
      "type": "function"
    },
    {
      "inputs": [],
      "name": "owner",
      "outputs": [
        {
          "internalType": "address",
          "name": "",
          "type": "address"
        }
      ],
      "stateMutability": "view",
      "type": "function"
    },
    {
      "inputs": [
        {
          "internalType": "address",
          "name": "owner_",
          "type": "address"
        }
      ],
      "name": "setOwner",
      "outputs": [],
      "stateMutability": "nonpayable",
      "type": "function"
    },
    {
      "inputs": [
        {
          "internalType": "contract DSAuthority",
          "name": "authority_",
          "type": "address"
        }
      ],
      "name": "setAuthority",
      "outputs": [],
      "stateMutability": "nonpayable",
      "type": "function"
    }
  ],
  "bytecode": "0x608060405234801561001057600080fd5b5033600160006101000a81548173ffffffffffffffffffffffffffffffffffffffff021916908373ffffffffffffffffffffffffffffffffffffffff1602179055503373ffffffffffffffffffffffffffffffffffffffff167fce241d7ca1f669fee44b6fc00b8eba2df3bb514eed0f6f668f8f89096e81ed9460405160405180910390a2610605806100a46000396000f3fe608060405234801561001057600080fd5b506004361061004c5760003560e01c806313af4035146100515780637a9e5e4b146100955780638da5cb5b146100d9578063bf7e214f14610123575b600080fd5b6100936004803603602081101561006757600080fd5b81019080803573ffffffffffffffffffffffffffffffffffffffff16906020019092919050505061016d565b005b6100d7600480360360208110156100ab57600080fd5b81019080803573ffffffffffffffffffffffffffffffffffffffff16906020019092919050505061024d565b005b6100e161032b565b604051808273ffffffffffffffffffffffffffffffffffffffff1673ffffffffffffffffffffffffffffffffffffffff16815260200191505060405180910390f35b61012b610351565b604051808273ffffffffffffffffffffffffffffffffffffffff1673ffffffffffffffffffffffffffffffffffffffff16815260200191505060405180910390f35b61019b336000357fffffffff0000000000000000000000000000000000000000000000000000000016610376565b6101a457600080fd5b80600160006101000a81548173ffffffffffffffffffffffffffffffffffffffff021916908373ffffffffffffffffffffffffffffffffffffffff160217905550600160009054906101000a900473ffffffffffffffffffffffffffffffffffffffff1673ffffffffffffffffffffffffffffffffffffffff167fce241d7ca1f669fee44b6fc00b8eba2df3bb514eed0f6f668f8f89096e81ed9460405160405180910390a250565b61027b336000357fffffffff0000000000000000000000000000000000000000000000000000000016610376565b61028457600080fd5b806000806101000a81548173ffffffffffffffffffffffffffffffffffffffff021916908373ffffffffffffffffffffffffffffffffffffffff1602179055506000809054906101000a900473ffffffffffffffffffffffffffffffffffffffff1673ffffffffffffffffffffffffffffffffffffffff167f1abebea81bfa2637f28358c371278fb15ede7ea8dd28d2e03b112ff6d936ada460405160405180910390a250565b600160009054906101000a900473ffffffffffffffffffffffffffffffffffffffff1681565b6000809054906101000a900473ffffffffffffffffffffffffffffffffffffffff1681565b60003073ffffffffffffffffffffffffffffffffffffffff168373ffffffffffffffffffffffffffffffffffffffff1614156103b557600190506105c9565b600160009054906101000a900473ffffffffffffffffffffffffffffffffffffffff1673ffffffffffffffffffffffffffffffffffffffff168373ffffffffffffffffffffffffffffffffffffffff16141561041457600190506105c9565b600073ffffffffffffffffffffffffffffffffffffffff166000809054906101000a900473ffffffffffffffffffffffffffffffffffffffff1673ffffffffffffffffffffffffffffffffffffffff16141561047357600090506105c9565b6000809054906101000a900473ffffffffffffffffffffffffffffffffffffffff1673ffffffffffffffffffffffffffffffffffffffff1663b70096138430856040518463ffffffff1660e01b8152600401808473ffffffffffffffffffffffffffffffffffffffff1673ffffffffffffffffffffffffffffffffffffffff1681526020018373ffffffffffffffffffffffffffffffffffffffff1673ffffffffffffffffffffffffffffffffffffffff168152602001827bffffffffffffffffffffffffffffffffffffffffffffffffffffffff19167bffffffffffffffffffffffffffffffffffffffffffffffffffffffff19168152602001935050505060206040518083038186803b15801561058b57600080fd5b505afa15801561059f573d6000803e3d6000fd5b505050506040513d60208110156105b557600080fd5b810190808051906020019092919050505090505b9291505056fea26469706673582212207cca40e9a5faca677f42e1c5228dad8589041814141db9c6b8b1334910c4f73664736f6c63430006010033",
  "source": "pragma solidity >=0.4.21 <0.7.0;\n/**\n *Submitted for verification at Etherscan.io on 2018-09-17\n*/\n\n// hevm: flattened sources of src/osm.sol\n\n////// lib/ds-stop/lib/ds-auth/src/auth.sol\n// This program is free software: you can redistribute it and/or modify\n// it under the terms of the GNU General Public License as published by\n// the Free Software Foundation, either version 3 of the License, or\n// (at your option) any later version.\n\n// This program is distributed in the hope that it will be useful,\n// but WITHOUT ANY WARRANTY; without even the implied warranty of\n// MERCHANTABILITY or FITNESS FOR A PARTICULAR PURPOSE.  See the\n// GNU General Public License for more details.\n\n// You should have received a copy of the GNU General Public License\n// along with this program.  If not, see <http://www.gnu.org/licenses/>.\n\n/* pragma solidity ^0.4.23; */\n\nabstract contract DSAuthority {\n    function canCall(\n        address src, address dst, bytes4 sig\n    ) virtual public view returns (bool);\n}\n\ncontract DSAuthEvents {\n    event LogSetAuthority (address indexed authority);\n    event LogSetOwner     (address indexed owner);\n}\n\ncontract DSAuth is DSAuthEvents {\n    DSAuthority  public  authority;\n    address      public  owner;\n\n    constructor() public {\n        owner = msg.sender;\n        emit LogSetOwner(msg.sender);\n    }\n\n    function setOwner(address owner_)\n        public\n        auth\n    {\n        owner = owner_;\n        emit LogSetOwner(owner);\n    }\n\n    function setAuthority(DSAuthority authority_)\n        public\n        auth\n    {\n        authority = authority_;\n        emit LogSetAuthority(address(authority));\n    }\n\n    modifier auth {\n        require(isAuthorized(msg.sender, msg.sig));\n        _;\n    }\n\n    function isAuthorized(address src, bytes4 sig) internal view returns (bool) {\n        if (src == address(this)) {\n            return true;\n        } else if (src == owner) {\n            return true;\n        } else if (authority == DSAuthority(0)) {\n            return false;\n        } else {\n            return authority.canCall(src, address(this), sig);\n        }\n    }\n}\n\n////// lib/ds-stop/lib/ds-note/src/note.sol\n/// note.sol -- the `note' modifier, for logging calls as events\n\n// This program is free software: you can redistribute it and/or modify\n// it under the terms of the GNU General Public License as published by\n// the Free Software Foundation, either version 3 of the License, or\n// (at your option) any later version.\n\n// This program is distributed in the hope that it will be useful,\n// but WITHOUT ANY WARRANTY; without even the implied warranty of\n// MERCHANTABILITY or FITNESS FOR A PARTICULAR PURPOSE.  See the\n// GNU General Public License for more details.\n\n// You should have received a copy of the GNU General Public License\n// along with this program.  If not, see <http://www.gnu.org/licenses/>.\n\n/* pragma solidity ^0.4.23; */\n\ncontract DSNote {\n    event LogNote(\n        bytes4   indexed  sig,\n        address  indexed  guy,\n        bytes32  indexed  foo,\n        bytes32  indexed  bar,\n        uint              wad,\n        bytes             fax\n    ) anonymous;\n\n    modifier note {\n        bytes32 foo;\n        bytes32 bar;\n\n        assembly {\n            foo := calldataload(4)\n            bar := calldataload(36)\n        }\n\n        emit LogNote(msg.sig, msg.sender, foo, bar, msg.value, msg.data);\n\n        _;\n    }\n}\n\n////// lib/ds-stop/src/stop.sol\n/// stop.sol -- mixin for enable/disable functionality\n\n// Copyright (C) 2017  DappHub, LLC\n\n// This program is free software: you can redistribute it and/or modify\n// it under the terms of the GNU General Public License as published by\n// the Free Software Foundation, either version 3 of the License, or\n// (at your option) any later version.\n\n// This program is distributed in the hope that it will be useful,\n// but WITHOUT ANY WARRANTY; without even the implied warranty of\n// MERCHANTABILITY or FITNESS FOR A PARTICULAR PURPOSE.  See the\n// GNU General Public License for more details.\n\n// You should have received a copy of the GNU General Public License\n// along with this program.  If not, see <http://www.gnu.org/licenses/>.\n\n/* pragma solidity ^0.4.23; */\n\n/* import \"ds-auth/auth.sol\"; */\n/* import \"ds-note/note.sol\"; */\n\ncontract DSStop is DSNote, DSAuth {\n\n    bool public stopped;\n\n    modifier stoppable {\n        require(!stopped);\n        _;\n    }\n    function stop() public payable auth note {\n        stopped = true;\n    }\n    function start() public payable auth note {\n        stopped = false;\n    }\n\n}\n\n////// src/osm.sol\n/// osm.sol - oracle security module\n\n// Copyright (C) 2018  DappHub, LLC\n\n// This program is free software: you can redistribute it and/or modify\n// it under the terms of the GNU General Public License as published by\n// the Free Software Foundation, either version 3 of the License, or\n// (at your option) any later version.\n\n// This program is distributed in the hope that it will be useful,\n// but WITHOUT ANY WARRANTY; without even the implied warranty of\n// MERCHANTABILITY or FITNESS FOR A PARTICULAR PURPOSE.  See the\n// GNU General Public License for more details.\n\n// You should have received a copy of the GNU General Public License\n// along with this program.  If not, see <http://www.gnu.org/licenses/>.\n\n/* pragma solidity ^0.4.24; */\n\n/* import \"ds-auth/auth.sol\"; */\n/* import \"ds-stop/stop.sol\"; */\n// import \"ds-value/value.sol\";\n\ninterface DSValue {\n    function peek() external returns (bytes32,bool);\n    function read() external returns (bytes32);\n}\n\nabstract contract OSM is DSAuth, DSStop {\n    DSValue public src;\n\n    uint16 constant ONE_HOUR = uint16(3600);\n\n    uint16 public hop = ONE_HOUR;\n    uint64 public zzz;\n\n    struct Feed {\n        uint128 val;\n        bool    has;\n    }\n\n    Feed cur;\n    Feed nxt;\n\n    event LogValue(bytes32 val);\n\n    function era() internal view returns (uint) {\n        return block.timestamp;\n    }\n\n    function prev(uint ts) internal view returns (uint64) {\n        return uint64(ts - (ts % hop));\n    }\n\n    function step(uint16 ts) external auth {\n        require(ts > 0);\n        hop = ts;\n    }\n\n    function void() external auth {\n        cur = nxt = Feed(0, false);\n        stopped = true;\n    }\n\n    function pass() public view returns (bool ok) {\n        return era() >= zzz + hop;\n    }\n\n    function poke() virtual external;\n\n    function peek() virtual external view returns (bytes32,bool);\n\n    function peep() virtual external view returns (bytes32,bool);\n\n    function read() virtual external view returns (bytes32);\n}\n",
  "sourcePath": "/Users/quentin/Documents/work/school/5AMOC/Blockchain/5MOC-blockchain/contracts/OSM/OSM.sol",
  "compiler": {
    "name": "solc",
    "version": "0.6.1+commit.e6f7d5a4.Emscripten.clang"
  },
  "schemaVersion": "3.0.23",
  "updatedAt": "2020-03-13T11:02:20.471Z",
  "devdoc": {
    "methods": {}
  },
  "userdoc": {
    "methods": {}
  }
}