{
  "contractName": "FakeTrader",
  "abi": [
    {
      "anonymous": false,
      "inputs": [
        {
          "indexed": true,
          "internalType": "address",
          "name": "previousOwner",
          "type": "address"
        },
        {
          "indexed": true,
          "internalType": "address",
          "name": "newOwner",
          "type": "address"
        }
      ],
      "name": "OwnershipTransferred",
      "type": "event"
    },
    {
      "constant": true,
      "inputs": [],
      "name": "isOwner",
      "outputs": [
        {
          "internalType": "bool",
          "name": "",
          "type": "bool"
        }
      ],
      "payable": false,
      "stateMutability": "view",
      "type": "function"
    },
    {
      "constant": true,
      "inputs": [],
      "name": "owner",
      "outputs": [
        {
          "internalType": "address",
          "name": "",
          "type": "address"
        }
      ],
      "payable": false,
      "stateMutability": "view",
      "type": "function"
    },
    {
      "constant": false,
      "inputs": [],
      "name": "renounceOwnership",
      "outputs": [],
      "payable": false,
      "stateMutability": "nonpayable",
      "type": "function"
    },
    {
      "constant": false,
      "inputs": [
        {
          "internalType": "address",
          "name": "newOwner",
          "type": "address"
        }
      ],
      "name": "transferOwnership",
      "outputs": [],
      "payable": false,
      "stateMutability": "nonpayable",
      "type": "function"
    },
    {
      "constant": false,
      "inputs": [
        {
          "internalType": "uint256",
          "name": "_competitionId",
          "type": "uint256"
        }
      ],
      "name": "joinCompetition",
      "outputs": [],
      "payable": false,
      "stateMutability": "nonpayable",
      "type": "function"
    },
    {
      "constant": false,
      "inputs": [
        {
          "internalType": "uint256",
          "name": "_competitionId",
          "type": "uint256"
        }
      ],
      "name": "leaveCompetition",
      "outputs": [],
      "payable": false,
      "stateMutability": "nonpayable",
      "type": "function"
    },
    {
      "constant": false,
      "inputs": [
        {
          "internalType": "uint256",
          "name": "_currencyAmount",
          "type": "uint256"
        },
        {
          "internalType": "string",
          "name": "_currency",
          "type": "string"
        }
      ],
      "name": "buy",
      "outputs": [],
      "payable": false,
      "stateMutability": "nonpayable",
      "type": "function"
    },
    {
      "constant": false,
      "inputs": [
        {
          "internalType": "uint256",
          "name": "_currencyAmount",
          "type": "uint256"
        },
        {
          "internalType": "string",
          "name": "_currency",
          "type": "string"
        }
      ],
      "name": "sell",
      "outputs": [],
      "payable": false,
      "stateMutability": "nonpayable",
      "type": "function"
    },
    {
      "constant": true,
      "inputs": [
        {
          "internalType": "string",
          "name": "_currency",
          "type": "string"
        }
      ],
      "name": "getPrice",
      "outputs": [
        {
          "internalType": "uint256",
          "name": "",
          "type": "uint256"
        }
      ],
      "payable": false,
      "stateMutability": "view",
      "type": "function"
    },
    {
      "constant": false,
      "inputs": [
        {
          "internalType": "uint256",
          "name": "_competitionDuration",
          "type": "uint256"
        }
      ],
      "name": "setCompetitionDuration",
      "outputs": [],
      "payable": false,
      "stateMutability": "nonpayable",
      "type": "function"
    }
  ],
  "bytecode": "0x608060405260016003554260045562093a8060055560006100246100c760201b60201c565b9050806000806101000a81548173ffffffffffffffffffffffffffffffffffffffff021916908373ffffffffffffffffffffffffffffffffffffffff1602179055508073ffffffffffffffffffffffffffffffffffffffff16600073ffffffffffffffffffffffffffffffffffffffff167f8be0079c531659141344cd1fd0a4f28419497f9722a3daafe3b4186f6b6457e060405160405180910390a3506100cf565b600033905090565b610e31806100de6000396000f3fe608060405234801561001057600080fd5b506004361061009e5760003560e01c80638f32d59b116100665780638f32d59b146102b95780639e005e35146102db578063af96d18a14610309578063b7dc3b1814610337578063f2fde38b146103fc5761009e565b80631095846f146100a3578063524f3889146100d1578063715018a6146101a057806389f1bd3f146101aa5780638da5cb5b1461026f575b600080fd5b6100cf600480360360208110156100b957600080fd5b8101908080359060200190929190505050610440565b005b61018a600480360360208110156100e757600080fd5b810190808035906020019064010000000081111561010457600080fd5b82018360208201111561011657600080fd5b8035906020019184600183028401116401000000008311171561013857600080fd5b91908080601f016020809104026020016040519081016040528093929190818152602001838380828437600081840152601f19601f820116905080830192505050505050509192919290505050610538565b6040518082815260200191505060405180910390f35b6101a861053f565b005b61026d600480360360408110156101c057600080fd5b8101908080359060200190929190803590602001906401000000008111156101e757600080fd5b8201836020820111156101f957600080fd5b8035906020019184600183028401116401000000008311171561021b57600080fd5b91908080601f016020809104026020016040519081016040528093929190818152602001838380828437600081840152601f19601f820116905080830192505050505050509192919290505050610678565b005b6102776107cf565b604051808273ffffffffffffffffffffffffffffffffffffffff1673ffffffffffffffffffffffffffffffffffffffff16815260200191505060405180910390f35b6102c16107f8565b604051808215151515815260200191505060405180910390f35b610307600480360360208110156102f157600080fd5b8101908080359060200190929190505050610856565b005b6103356004803603602081101561031f57600080fd5b81019080803590602001909291905050506108da565b005b6103fa6004803603604081101561034d57600080fd5b81019080803590602001909291908035906020019064010000000081111561037457600080fd5b82018360208201111561038657600080fd5b803590602001918460018302840111640100000000831117156103a857600080fd5b91908080601f016020809104026020016040519081016040528093929190818152602001838380828437600081840152601f19601f8201169050808301925050505050505091929192905050506109c8565b005b61043e6004803603602081101561041257600080fd5b81019080803573ffffffffffffffffffffffffffffffffffffffff169060200190929190505050610b1f565b005b8060035481116104b8576040517f08c379a000000000000000000000000000000000000000000000000000000000815260040180806020018281038252601e8152602001807f4974206973206e6f7420612066757475726520636f6d7065746974696f6e000081525060200191505060405180910390fd5b33826104c48282610ba5565b61053257600260003373ffffffffffffffffffffffffffffffffffffffff1673ffffffffffffffffffffffffffffffffffffffff1681526020019081526020016000208490806001815401808255809150509060018203906000526020600020016000909192909190915055505b50505050565b6000919050565b6105476107f8565b6105b9576040517f08c379a00000000000000000000000000000000000000000000000000000000081526004018080602001828103825260208152602001807f4f776e61626c653a2063616c6c6572206973206e6f7420746865206f776e657281525060200191505060405180910390fd5b600073ffffffffffffffffffffffffffffffffffffffff166000809054906101000a900473ffffffffffffffffffffffffffffffffffffffff1673ffffffffffffffffffffffffffffffffffffffff167f8be0079c531659141344cd1fd0a4f28419497f9722a3daafe3b4186f6b6457e060405160405180910390a360008060006101000a81548173ffffffffffffffffffffffffffffffffffffffff021916908373ffffffffffffffffffffffffffffffffffffffff160217905550565b600061068382610538565b90506000818402905080600160003373ffffffffffffffffffffffffffffffffffffffff1673ffffffffffffffffffffffffffffffffffffffff16815260200190815260200160002060405180807f747261646572636f696e00000000000000000000000000000000000000000000815250600a01905090815260200160405180910390206000828254019250508190555083600160003373ffffffffffffffffffffffffffffffffffffffff1673ffffffffffffffffffffffffffffffffffffffff168152602001908152602001600020846040518082805190602001908083835b602083106107895780518252602082019150602081019050602083039250610766565b6001836020036101000a03801982511681845116808217855250505050505090500191505090815260200160405180910390206000828254039250508190555050505050565b60008060009054906101000a900473ffffffffffffffffffffffffffffffffffffffff16905090565b60008060009054906101000a900473ffffffffffffffffffffffffffffffffffffffff1673ffffffffffffffffffffffffffffffffffffffff1661083a610c8a565b73ffffffffffffffffffffffffffffffffffffffff1614905090565b61085e6107f8565b6108d0576040517f08c379a00000000000000000000000000000000000000000000000000000000081526004018080602001828103825260208152602001807f4f776e61626c653a2063616c6c6572206973206e6f7420746865206f776e657281525060200191505060405180910390fd5b8060058190555050565b806003548111610952576040517f08c379a000000000000000000000000000000000000000000000000000000000815260040180806020018281038252601e8152602001807f4974206973206e6f7420612066757475726520636f6d7065746974696f6e000081525060200191505060405180910390fd5b338261095e8282610ba5565b156109c2576000600260003373ffffffffffffffffffffffffffffffffffffffff1673ffffffffffffffffffffffffffffffffffffffff16815260200190815260200160002090508085815481106109b257fe5b9060005260206000200160009055505b50505050565b60006109d382610538565b90506000818402905080600160003373ffffffffffffffffffffffffffffffffffffffff1673ffffffffffffffffffffffffffffffffffffffff16815260200190815260200160002060405180807f747261646572636f696e00000000000000000000000000000000000000000000815250600a01905090815260200160405180910390206000828254039250508190555083600160003373ffffffffffffffffffffffffffffffffffffffff1673ffffffffffffffffffffffffffffffffffffffff168152602001908152602001600020846040518082805190602001908083835b60208310610ad95780518252602082019150602081019050602083039250610ab6565b6001836020036101000a03801982511681845116808217855250505050505090500191505090815260200160405180910390206000828254019250508190555050505050565b610b276107f8565b610b99576040517f08c379a00000000000000000000000000000000000000000000000000000000081526004018080602001828103825260208152602001807f4f776e61626c653a2063616c6c6572206973206e6f7420746865206f776e657281525060200191505060405180910390fd5b610ba281610c92565b50565b60006060600260008573ffffffffffffffffffffffffffffffffffffffff1673ffffffffffffffffffffffffffffffffffffffff168152602001908152602001600020805480602002602001604051908101604052809291908181526020018280548015610c3257602002820191906000526020600020905b815481526020019060010190808311610c1e575b50505050509050600080905060008090505b8251811015610c7e5784838281518110610c5a57fe5b60200260200101511415610c715760019150610c7e565b8080600101915050610c44565b50809250505092915050565b600033905090565b600073ffffffffffffffffffffffffffffffffffffffff168173ffffffffffffffffffffffffffffffffffffffff161415610d18576040517f08c379a0000000000000000000000000000000000000000000000000000000008152600401808060200182810382526026815260200180610dd76026913960400191505060405180910390fd5b8073ffffffffffffffffffffffffffffffffffffffff166000809054906101000a900473ffffffffffffffffffffffffffffffffffffffff1673ffffffffffffffffffffffffffffffffffffffff167f8be0079c531659141344cd1fd0a4f28419497f9722a3daafe3b4186f6b6457e060405160405180910390a3806000806101000a81548173ffffffffffffffffffffffffffffffffffffffff021916908373ffffffffffffffffffffffffffffffffffffffff1602179055505056fe4f776e61626c653a206e6577206f776e657220697320746865207a65726f2061646472657373a265627a7a723158209a60693337881d20a3da0641fcc88536c0761ede58f7232b96bf5095ab84195864736f6c63430005100032",
  "source": "pragma solidity >=0.4.21 <0.7.0;\n\nimport \"./Ownable.sol\";\n\ncontract FakeTrader is Ownable {\n    mapping (address => mapping (string => uint)) traderToCurrencyToBalance;\n    mapping (address => uint[]) traderToCompetitions;\n\n    uint currentCompetition = 1;\n    uint startTimestamp = now;\n    uint competitionDuration = 7 days;\n\n    modifier isOpen(uint _competitionId) {\n        require(now < startTimestamp + competitionDuration, \"Competition is closed\");\n        require(_competitionId == currentCompetition, \"Not the current competition\");\n        _;\n    }\n\n    modifier isNotStarted(uint _competitionId) {\n        require(_competitionId > currentCompetition, \"It is not a future competition\");\n        _;\n    }\n\n    modifier isParticipant(address _trader, uint _competitionId) {\n        if (_participate(_trader, _competitionId)) _;\n    }\n\n    modifier isNotParticipant(address _trader, uint _competitionId) {\n        if (!_participate(_trader, _competitionId)) _;\n    }\n\n    function _participate(address _trader, uint _competitionId) private view returns (bool) {\n        uint[] memory competitions = traderToCompetitions[_trader];\n        bool participant = false;\n\n        for (uint i = 0; i < competitions.length; i++) {\n            if (competitions[i] == _competitionId) {\n                participant = true;\n                break;\n            }\n        }\n\n        return participant;\n    }\n\n    // TODO: (later) add participation fee\n    function joinCompetition(uint _competitionId) public isNotStarted(_competitionId) isNotParticipant(msg.sender, _competitionId) {\n        traderToCompetitions[msg.sender].push(_competitionId);\n    }\n\n    // TODO: (later) refund participation fee\n    function leaveCompetition(uint _competitionId) public isNotStarted(_competitionId) isParticipant(msg.sender, _competitionId) {\n        uint[] storage competitions = traderToCompetitions[msg.sender];\n        delete competitions[_competitionId];\n    }\n\n    function buy(uint _currencyAmount, string memory _currency) public {\n        uint currencyPrice = getPrice(_currency);\n        uint tradePrice = _currencyAmount * currencyPrice;\n        traderToCurrencyToBalance[msg.sender][\"tradercoin\"] -= tradePrice;\n        traderToCurrencyToBalance[msg.sender][_currency] += _currencyAmount;\n    }\n\n    function sell(uint _currencyAmount, string memory _currency) public {\n        uint currencyPrice = getPrice(_currency);\n        uint tradePrice = _currencyAmount * currencyPrice;\n        traderToCurrencyToBalance[msg.sender][\"tradercoin\"] += tradePrice;\n        traderToCurrencyToBalance[msg.sender][_currency] -= _currencyAmount;\n    }\n\n    function getPrice(string memory _currency) public view returns (uint) {\n        // Implement price feeder method\n    }\n\n    function setCompetitionDuration(uint _competitionDuration) external onlyOwner {\n        competitionDuration = _competitionDuration;\n    }\n}\n",
  "sourcePath": "/Users/quentin/Documents/work/school/5AMOC/Blockchain/5MOC-blockchain/contracts/FakeTrader.sol",
  "compiler": {
    "name": "solc",
    "version": "0.5.16+commit.9c3226ce.Emscripten.clang"
  },
  "schemaVersion": "3.0.23",
  "updatedAt": "2020-03-12T14:02:45.696Z",
  "devdoc": {
    "methods": {
      "isOwner()": {
        "details": "Returns true if the caller is the current owner."
      },
      "owner()": {
        "details": "Returns the address of the current owner."
      },
      "renounceOwnership()": {
        "details": "Leaves the contract without owner. It will not be possible to call `onlyOwner` functions anymore. Can only be called by the current owner.     * NOTE: Renouncing ownership will leave the contract without an owner, thereby removing any functionality that is only available to the owner."
      },
      "transferOwnership(address)": {
        "details": "Transfers ownership of the contract to a new account (`newOwner`). Can only be called by the current owner."
      }
    }
  },
  "userdoc": {
    "methods": {}
  }
}