{
  "contractName": "PriceHelper",
  "abi": [
    {
      "inputs": [],
      "name": "getPrice",
      "outputs": [
        {
          "internalType": "uint256",
          "name": "",
          "type": "uint256"
        }
      ],
      "stateMutability": "view",
      "type": "function"
    }
  ],
  "bytecode": "0x6080604052739fffe440258b79c5d6604001674a4722ffc0f7bc6000806101000a81548173ffffffffffffffffffffffffffffffffffffffff021916908373ffffffffffffffffffffffffffffffffffffffff1602179055507381fe72b5a8d1a857d176c3e7d5bd2679a9b85763600160006101000a81548173ffffffffffffffffffffffffffffffffffffffff021916908373ffffffffffffffffffffffffffffffffffffffff1602179055506000809054906101000a900473ffffffffffffffffffffffffffffffffffffffff16600260006101000a81548173ffffffffffffffffffffffffffffffffffffffff021916908373ffffffffffffffffffffffffffffffffffffffff16021790555034801561011b57600080fd5b506101298061012b6000396000f3fe6080604052348015600f57600080fd5b506004361060285760003560e01c806398d5fdca14602d575b600080fd5b60336049565b6040518082815260200191505060405180910390f35b6000600260009054906101000a900473ffffffffffffffffffffffffffffffffffffffff1673ffffffffffffffffffffffffffffffffffffffff166357de26a46040518163ffffffff1660e01b815260040160206040518083038186803b15801560b257600080fd5b505afa15801560c5573d6000803e3d6000fd5b505050506040513d602081101560da57600080fd5b810190808051906020019092919050505060001c90509056fea26469706673582212201be0271e468986862b17c703fbf0d3a56e0baa389f4ca61772555de2713e86a264736f6c63430006010033",
  "source": "pragma solidity >=0.4.21 <0.7.0;\n\nimport \"../OSM/OSM.sol\";\n\ncontract PriceHelper {\n    address OSMKovan = 0x9FfFE440258B79c5d6604001674A4722FfC0f7Bc;\n    address OSMMainNet = 0x81FE72B5A8d1A857d176C3E7d5Bd2679A9B85763;\n\n    OSM osmInstance = OSM(OSMKovan);\n\n    /// @notice Allow anyone to get real currency current price in Wei.\n    /// @return uint\n    function getPrice() public view returns (uint) {\n        return uint(osmInstance.read()) ;\n    }\n\n    /// @notice Allow to convert wei to usd dollar centimes.\n    /// @return uint\n    function _getVirtualCurrencyAmount(uint _weiAmount) internal view returns (uint) {\n        return (getPrice() / 10 ** 18) * _weiAmount / (10 ** 16);\n    }\n}\n",
  "sourcePath": "/Users/quentin/Documents/work/school/5AMOC/Blockchain/5MOC-blockchain/contracts/Helper/PriceHelper.sol",
  "compiler": {
    "name": "solc",
    "version": "0.6.1+commit.e6f7d5a4.Emscripten.clang"
  },
  "schemaVersion": "3.0.23",
  "updatedAt": "2020-03-13T12:02:00.521Z",
  "devdoc": {
    "methods": {}
  },
  "userdoc": {
    "methods": {
      "getPrice()": {
        "notice": "Allow anyone to get real currency current price in Wei."
      }
    }
  }
}